:4000000000400020110000001D1800001D18000080B500AF01F006FC80B500AF304B12221A6002F07BFE2F4B181C02F0A5FC012002F084FE302002F0AFFC2B4B2B4A1A606E
:400040002B4B8022D2051A602A4B2A4A126802210A431A60284B294A1A60294B284A126808218A431A60FA23DB00181C02F0E0FC244B181C02F0F6FD234B244A1A60244B53
:40008000244A1A60244BE022D2001A60204B234A1A60234BA022D2001A601D4B214A1A60214B822212061A60204B8022D2021A601F4B42221A601F4B41221A601E4B402229
:4000C0001A601E4B0820191C02F0FCFC082002F073FD074B8022D2051A60BD4680BDC04630001040001BB70004010B40060000800C020B4078002E407C002E402D3E000005
:400100006CF02E40DC05000008030140007FBB000000014042FF00800403014041FF00800003014040FF008008010B4000010B401C01014018010140040101408D2E000028
:4001400080B582B000AF72B63F4B00221A60FB1D00221A7023E0FB1D1A78131C5B009B185B003A4A9B183B603B681A78597809020A43997809040A43DB781B061343191C78
:400180003B681A795B791B0213439BB2081C191C01F0CCFBFB1D1A78FB1D01321A70FB1D1B78012BD7D92A4A2A4B101C191C01F0CDFB294BEE2212061A60284B284A1A60E6
:4001C000284BEE221A60284B992212041A60274B992212041A60264B264A1A60264B992212041A60254A254B1B78DBB202210B43DBB21370224A224B1B78DBB23C218B43CC
:40020000DBB214210B43DBB213701C4A1B4B1B78DBB216210B43DBB213701A4BD82212041A60194B41221A60184B41221A60184B03221A60174B24221A60FFF7EDFE01F0B7
:40024000C5FBBD4602B080BD6CF02E40F07C0100FC7C0100107D01000000024000020240060000070003024000500F4020500F4028500F400000542030500F4000700F408F
:4002800001700F40080004400002044018020440000304400803044010B5064C2378002B07D1054B002B02D0044800E000BF0123237010BD3810002000000000907C010012
:4002C00008B5084B002B03D00748084900E000BF07480368002B00D108BD064B002BFBD09847F9E700000000907C01003C100020A80B00200000000098B500AF074BDC6B4F
:400300009B6B012100225B185441044A9363D463012002F0C7FABD4698BDC0462822002080B500AF00F01AF802F036F801F0BCF901F096F900F0E6FF002001F047F802F011
:400340004FFA054B181C02F0B9FA02F013FE02F045FFBD4680BDC046F902000080B500AF0A4B181C01F0A0FB094B00221A70094B00221A70084B00221A70084B00221A709A
:40038000074B00221A70BD4680BDC046A5030000C6210020E5210020E4210020A8210020C021002080B584B000AF786039607B68282B0DD005D8012B0AD0052B00D1EAE0CB
:4003C000F0E0422B19D04C2B29D0412B07D0E9E0002001F003FC754B00221A70E2E0744A3B68111C1A1C0223081C111C1A1C06F05CFE6E4B01221A70D4E06C4B00221A70E0
:400400000023FB6007E06B4BFA6892000021D150FB680133FB60FB68042BF4D9C2E03B68BB60654B012252421A60BB689B89113B0C2B00D9B5E09A00604BD3181B689F4609
:40044000BB681A1D5E4B101C00211A1C402312F0ABFD0422BB685B681B78191C01231940544B9200D150564B1A785B781B021A4300231204120C1B0C1B041343181C12F09D
:4004800025F887E0BB681A1D4D4B101C00211A1C402312F089FD0022BB685B681B78191C01231940434B9200D150454B1A785B781B021A4300231204120C1B0C1B04134368
:4004C000181C12F003F865E0BB681A1D3C4B101C00211A1C402312F067FD0322BB685B681B78191C01231940324B9200D150344B1A785B781B021A4300231204120C1B0CFD
:400500001B041343181C11F0E1FF43E0BB681A1D2B4B101C00211A1C402312F045FD0222BB685B681B78191C01231940214B9200D150234B1A785B781B021A430023120420
:40054000120C1B0C1B041343181C11F0BFFF21E0BB681A1D1A4B101C00211A1C402312F023FD0122BB685B681B78191C01231940104B9200D150124B1A785B781B021A436E
:4005800000231204120C1B0C1B041343181C11F09DFFC04605E03B681A780A4B1A70C04600E0C046BD4604B080BDC046C6210020C421002054100020BC210020A87C0100E0
:4005C00088220020E421002080B588B000AFF860B9607A601D4B1B78022B33D1BB689AB21423FB181A811423FB183A1D1A601423FB1804229A801423FA18154B101C00218A
:400600001A1C002312F0D0FC1423FA18104B101C191C002212F092FC0E4BFA689200D358002B0FD00A4B1422B9181A785B781B021A4300231204120C1B0C1B041343181CF8
:4006400011F0EEFEBD4608B080BDC04680220020882200205410002080B586B000AF62B6FFF75EFE00237B6100233B610023FB600023BB6000237B6000233B6006F056FD7C
:400680002D4B1B78002B53D02C4B1B78002B4FD100F0C4FE00F082FE031C1A1C284B1B68D31A3B603A68FA239B009A421FDD00F0E5FE031CFB6000F0D9FE031C181C03F00B
:4006C00031FF031C3B6102223B69101C16211A1CFFF77AFF0322FB68101C19211A1CFFF773FF00F05BFE031C1A1C154B1A6000F0BBFF031CBB600422BB68101C1C211A1C6F
:40070000FFF762FF01F00EF8031C7B6100227B69101C10211A1CFFF757FF00F0B5FF031C7B6001227B68101C13211A1CFFF74CFF0A2002F073FAA1E7C6210020E4210020D3
:400740006810002090B585B000AFB860F9603A607B60B868F9683A687B6803F081FE031E02D0BB68FC6801E03B687C68181C211CBD4605B090BDC04680B500AF0A4B1B6A3E
:4007800000221A70084B1B6A084A5A60064B1B6A00229A60044B1B6A0022DA60024B1B6A00221A61BD4680BD282200200000A04180B582B000AF78607B68181C00F030F870
:4007C000031C181CBD4602B080BDC04680B500AF104B1B6A9B68181C002103F075FE031E13D10C4B1B6A9B68FE208005191C04F02DF8031C181C084904F01AFA031C181C58
:40080000064904F015FA031C00E00023181CBD4680BDC0462822002000007A4400007042F0B585B000AF78600F23FB1800221A70754B1B6A1B78042B00D9DEE09A00734BA8
:40084000D3181B689F4600F0A9FD021CFA23DB009A4204DD6C4B1B6A01221A70CDE0CCE0694B1B6A5B68181C796803F033FE031E14D0654B1C6A786806F0DAFA0022644B8F
:40088000FFF760FF021C0B1C101C191C06F024FB031C63605C4B1B6A02221A7000F07EFD031C1A1C584B1B6A1B69D21AFA23DB009A4207D9544B1B6A00229A60524B1B6AFE
:4008C0000022DA6000F0B0F897E04F4B1B6A5B68181C796803F012FE031E04D04A4B1B6A03221A7089E0484B1C6A786806F0A0FA0022474BFFF726FF021C0B1C101C191C6E
:4009000006F0EAFA031C636077E07868414903F021FE031C1A1C3C4B1B6A5B68101C191C03F0D8FD031E52D00F23FB1801221A70354B1B6A7A68DA60334B1B6A04221A70D2
:4009400000F02CFD031C1A1C2F4B1B6A1B69D31A181C04F03DFC031CBB60B868002103F0B3FD031E2CD1284B1C6AB86806F060FA021C0B1C101C191C274A284B05F0D6FB43
:40098000021C0B1C151C1E1C1F4B1B6A9B68181C06F04EFA021C0B1C101C191C204A214B05F0C4FB021C0B1C281C311C04F058FC021C0B1C101C191C06F08EFA031CA3608F
:4009C000114B1C6A00F0EAFC031C236115E00E4B1B6A02221A7010E000F0E0FC031C1A1C094B1B6A1B69D31AC82B03D9064B1B6A01221A7000F018F8C0460F23FB181B7890
:400A0000181CBD4605B0F0BD28220020DC7C0100000089400000F041333333333333E33F9A9999999999D93FF0B583B000AF3B4B1B6ADB68181C002103F060FD031E44D0AE
:400A4000364B1B6A9B68181C002103F057FD031E3BD0324B1C6A314B1B6A5B68181C06F0E7F9051C0E1C2D4B1B6ADB68181C06F0DFF9021C0B1C101C191C294A294B05F0C5
:400A800055FB021C0B1C3A607B60244B1B6A9B68181C254903F0DAFE031C181C06F0C8F9021C0B1C3868796804F002FF021C0B1C281C311C05F0D4FD021C0B1C101C191CC1
:400AC00006F00AFA031C636017E0144B1C6A134B1B6A5B68181C06F0ABF9021C0B1C101C191C124A124B05F021FB021C0B1C101C191C06F0F1F9031C6360084B1B6A5B6857
:400B0000181C0C4903F0E6FC031E03D0034B1B6A084A5A60BD4603B0F0BDC04628220020666666666666E63F00002041AE47E17A14AEEF3F0000A04180B500AF022000F0B0
:400B400013F8022000F010F8032000F01DF8012000F03CF80920092100F05CF8012000F073F8BD4680BDC04680B582B000AF021CFB1D1A70FB1D1B780620191C00F0CCF8FA
:400B8000BD4602B080BDC04690B585B000AF021CFB1D1A700F23FC18072000F085F8031C23700F23FB181B781A1C03239A43131CDAB2FB1D1B781343DBB2DBB20720191C85
:400BC00000F0AAF8BD4605B090BDC04690B585B000AF021CFB1D1A700F23FC18072000F063F8031C23700F23FB181B781A1C1C239A43131CDAB2FB1D1B789B00DBB21343F7
:400C0000DBB2DBB20720191C00F086F8BD4605B090BDC04680B582B000AF021CFB1D1A70BB1D0A1C1A70BB1D1B781B01DAB2FB1D1B781343DBB2DBB20920191C00F06CF887
:400C4000BD4602B080BDC04690B585B000AF021CFB1D1A700F23FC18072000F025F8031C2370FB1D1B78002B0AD00F23FB181B7840221343DBB20720191C00F04DF809E020
:400C80000F23FB181B7840229343DBB20720191C00F042F8BD4605B090BDC04680B500AF00F09AF8BD4680BD80B584B000AF021CFB1D1A700C23FB1800221A700C23FB1858
:400CC000FA1D12781A700823FB1800221A700C23FB185720191C0122022301F0E7FBC04601F008FD021C02231340F9D00823FB185720191C0122012301F066FCC04601F000
:400D0000F9FC021C01231340F9D00823FB181B78181CBD4604B080BD80B584B000AF021CFB1D1A70BB1D0A1C1A700C23FB1800221A800C23FB18FA1D12781A700C23FB185A
:400D4000BA1D12785A700C23FB185720191C0222002301F0ABFBC04601F0CCFC021C02231340F9D0C046BD4604B080BD80B584B000AF3960111CFB1D021C1A70BB1D0A1CC8
:400D80001A700C23FB1800221A700C23FB18FA1D12781A700C23FB185720191C0122022301F084FBC04601F0A5FC021C02231340F9D0BB1D1B783A685720111C1A1C0123A6
:400DC00001F002FCC04601F095FC021C01231340F9D0BD4604B080BD80B582B000AF3B1D0520191C0422FFF7C1FF0E4B5B6B3A1D1278120291B23A1D527892B20A4392B239
:400E000092B21A80074B5B6B3A1D9278120291B23A1DD27892B20A4392B292B25A80BD4602B080BD2822002080B582B000AF00237B6008E03F4B1A6B7B68D31864221A702B
:400E40007B6801337B607B68032BF3DD08E0394B1A6B7B68D31863221A707B6801337B607B68092BF3DD08E0324B1A6B7B68D31862221A707B6801337B607B680E2BF3DD54
:400E800008E02C4B1A6B7B68D31861221A707B6801337B607B68142BF3DD08E0254B1A6B7B68D31860221A707B6801337B607B681A2BF3DD08E01F4B1A6B7B68D3185F22C8
:400EC0001A707B6801337B607B68202BF3DD08E0184B1A6B7B68D3185E221A707B6801337B607B68252BF3DD08E0124B1A6B7B68D3185D221A707B6801337B607B682A2B10
:400F0000F3DD0C4B1B6B0022DA620A4B1B6B00221A63084B1B6B342200219954054B1B6B00229A63034B1B6B3C2200219954BD4602B080BD28220020F0B587B000AFF8607B
:400F4000B960FB1D1A705D4B1C6B5C4B1B6BDD6AF868F96803F06CFE031C281C191C03F0F9FA031CE362554B1C6B544B1B6B1D6BB868B96803F05CFE031C281C191C03F026
:400F8000E9FA031C23634D4B1B6B9A6B01329A63FB1D1B78002B00D18CE0484B1B6B34229A5C0132D1B234229954444B1B6B34229B5C032B00D07DE0404B1B6B1C6B3F4B06
:400FC0001B6B9B6B181C04F003F9031C201C191C03F03CFC031C181C05F02AFF031C0C1C181C211C02F0D2FB031C0C1C181C211C0022334B05F09AF8031C0C1C1D1C261CFD
:401000002E4B1B6BDC6A2D4B1B6B9B6B181C04F0DFF8031C201C191C03F018FC031C181C05F006FF031C0C1C181C211C02F0AEFB031C0C1C281C311C1A1C231C04F038FCBC
:40104000031C0C1C181C211C05F046FF031C3B611723FB1800221A7038691A4903F04EFA031E09D0386903F05DFA031CDAB21723FB18423A1A700EE03869134903F03EFA92
:40108000031E08D0386903F04DFA031CDAB21723FB18323A1A70094B1B6B181C00F016F8064B1A6B054B196B1723FB181B78C95C3C23D154BD4607B0F0BDC0462822002058
:4010C00000005940000084420000484280B500AF0B4B1B6B00229A63094B1B6B00221A63074B1B6B0022DA62054B1B6B342200219954034B1B6B3C2200219954BD4680BDBF
:401100002822002080B500AF034B1B6B3C229B5C181CBD4680BDC0462822002080B582B000AF021C3960FB1D1A70FB1D1B78692B08D10C4B5B6A3A681A600A4B5B6A002259
:401140005A600BE0FB1D1B78722B07D1054B9B6A3A681A60034B9B6A00225A60BD4602B080BDC0462822002090B585B000AF021C3960FB1D1A70FB1D1B78692B1FD1244B88
:401180005B6A5B68FB60224B5C6A214B5B6A1A681F4B5B6A5B68101C191C03F049FD031C181C396803F0D6F9031C6360184B5B6A5B68181CF96803F06DFE031C24E0FB1D29
:4011C0001B78722B1FD1124B9B6A5B68BB60104B9C6A0F4B9B6A1A680D4B9B6A5B68101C191C03F025FD031C181C396803F0B2F9031C6360064B9B6A5B68181CB96803F0E2
:4012000049FE031C00E00023181CBD4605B090BD2822002080B582B000AF021CFB1D1A70FB1D1B78692B03D1084B5B6A5B6808E0FB1D1B78722B03D1044B9B6A5B6800E0E3
:401240000023181CBD4602B080BDC0462822002080B500AF024BDB6A00221A60BD4680BD28220020F0B583B000AF7860204BDB6A1F4AD26A52681A601D4BDC6A786805F08E
:40128000D7FD021C0B1C101C191C1A4A1A4B04F04DFF021C0B1C151C1E1C154BDB6A1B68181C05F0C5FD021C0B1C101C191C134A134B04F03BFF021C0B1C281C311C03F090
:4012C000CFFF021C0B1C101C191C05F005FE031C6360074BDB6A1A68054BDB6A5B68101C191C03F037F9031C181CBD4603B0F0BD2822002048457C5EEF63CF3F5CDDC1507A
:40130000084EE03F98B500AF1C4B00221A701B4B00225A60194B00229A60184B0022DA60164B00221A61154B00225A61134B00229A61124B08221A77104B114A1A620F4B4E
:40134000104A5A620D4B104A9A620C4B0F4ADA620A4B0F4A1A63094B0E4A5A63FFF70CFAFFF776FFFFF760FD044A002300249363D463094B00221A60BD4698BD28220020FB
:40138000D0210020C8210020A0210020B4210020E8210020B0210020AC21002098B500AF084BDC6B9B6B1A1C074B53431C1C01F037FA031CE31A044A94466344181CBD4600
:4013C00098BDC0462822002060EA000080B582B000AF021CFB1D1A700E4BFA1D12785A70FFF7AAFB0320FFF7BFFB0F200821FFF711FC094B6920191CFFF790FE064B722002
:40140000191CFFF78BFE034B01221A70BD4602B080BDC046282200203333733F90B58DB00CAF114C6B46191C231C10333022081C191C05F03AFE20686168A268E36800F013
:4014400025F8094C6B46191C231C10333022081C191C05F02AFE20686168A268E36800F08FF8BD4601B090BD2822002080B500AFFFF7ACF9031C181CBD4680BD80B500AF4C
:40148000FFF740FE031C181CBD4680BD90B585B000AFFFF783FF031C1A1C364BDB68D31A181C05F093FC031C0C1C181C211C0022314B02F0E9FF031E59D0FFF76FFF031C09
:4014C0001A1C2C4BDA60FFF7E9FB2A4B5B6B1B88181C03F07DFE031C6920191CFFF744FE031CFB60234B5B6B5B88181C03F070FE031C7220191CFFF737FE031CBB60FB68C2
:40150000802212065340181CFFF7ACFE031C7B60FC1C7B68181CFFF74BF9031C2370FFF755F9031C181C002102F0E8FF031E0CD0104B02221A70F968BA68FB1C1B78081C8D
:40154000111C1A1CFFF7F8FC08E00A4B1B78022B04D1084B01221A70FFF7B8FDFB1C1B78002B04D0054B1B685A1C044B1A60BD4605B090BD2822002000002440AC21002026
:4015800090B583B000AFFFF709FF031C1A1C324B1B69D21AFA235B009A4259D9FB1D00221A706920FFF736FE041C7220FFF732FE031C201C191C03F06DFC031C181C274940
:4015C00002F09CFF031E0DD0234B1B7F0E2B09D8214B1B7F0133DAB21F4B1A77FB1D01221A701FE07220FFF715FE041C6920FFF711FE031C201C191C03F04CFC031C181C52
:40160000164902F07BFF031E0CD0134B1B7F002B08D0114B1B7F013BDAB20F4B1A77FB1D01221A70FB1D1B78002B0BD00A4B1B7F0F20191CFFF7EEFAFFF7B0FE031C1A1C9E
:40164000054B5A61FFF7AAFE031C1A1C024B1A61BD4603B090BDC0462822002000B8884780B500AFBD4680BD80B500AF002001F0C3FD031C0020191C01F0E0FD031C9BB223
:40168000181CBD4680BDC04680B500AF012001F0B3FD031C0120191C01F0D0FD031C9BB2181CBD4680BDC04680B500AF2A2000F07DF82A20002100F04FF82B20492100F017
:4016C0004BF82C20022100F047F82D20012100F043F82E20012100F03FF82A202B2100F03BF8BD4680BDC04680B500AF012000F05DF8031C181CBD4680BDC04680B500AF12
:40170000032000F053F8031C181CBD4680BDC04680B500AF052000F049F8031C181CBD4680BDC04680B584B000AFFFF7DDFF031CFB60FFF7E3FF031CBB60FFF7E9FF031C6C
:401740007B60FB681A04BB681B02D2187B68D318181CBD4604B080BD80B584B000AF021CFB1D1A70BB1D0A1C1A700C23FB1800221A800C23FB18FA1D12781A700C23FB18E0
:40178000BA1D12785A700C23FB181D20191C0222002300F08BFEC04600F0ACFF021C02231340F9D0C046BD4604B080BD80B584B000AF021CFB1D1A700C23FB1800221A70CA
:4017C0000C23FB18FA1D12781A700823FB1800221A700C23FB181D20191C0122022300F065FEC04600F086FF021C02231340F9D00823FB181D20191C0122012300F0E4FEA0
:40180000C04600F077FF021C01231340F9D00823FB181B78181CBD4604B080BD80B500AFFEE7C04680B586B000AF224B7B61224B3B61204B7B6135E03B691B68FB603B6928
:401840005B68BB603B699B683B6000237B600CE0FB681A68BB681A60BB680433BB60FB680433FB607B6804337B607A683B689A42EED13B69DB683B6000237B6008E0BB68D2
:4018800000221A60BB680433BB607B6804337B607A683B689A42F2D13B6910333B617B69013B7B617B69002BC6D105F0C9FBFEF7D3FEFEE7010000003881010080B582B053
:4018C00000AF154B144A126801218A431A6000237B600FE07B68032B04D8104B7A689200D35800E00E4B0F4A796889008B507B6801337B607B682F2BECD9FEF721FC0A4B92
:4019000000221A60044B044A126801210A431A60BD4602B080BDC04600001040000000001D18000000000020C000002080B582B000AF786039607A683B68101C00211A1CFF
:4019400005F0BCFBBD4602B080BDC04680B586B000AF7860396000233B6100237B612FE07B699B007A68D3181B68BB600F23FB18BA681A70BB68FF229343BB6018E03B69BF
:401980005B003A68D3181B781A1CBB68D318191C3B695B003A68D3185B780B703B6901333B610F23FB181A780F23FB18013A1A700F23FB181B78002BE1D17B6901337B615B
:4019C0007B69042BCCD9BD4606B080BD80B500AF0C4B03221A600C4B03221A600B4B802212061A600A4BC02212031A60094BC02212031A60084B00221A60012000F00EF84E
:401A0000BD4680BD300030403000314000003A4000033A4040033A40000E3F4080B584B000AF021CFB1D1A700B4B1B68FB60FB1D1B78002B05D0FB68802212061343FB605F
:401A400003E0FB685B005B08FB60034BFA681A60BD4604B080BDC04680033A4080B500AF094B00221A70094B00221A70084B00221A7000F013F8074B00221A70064B002297
:401A80001A70BD4680BDC0468B220020842200208A220020682200207022002080B500AF00F05EFCBD4680BDB0B594B004AF78603E23FB1800221A802823FA183E4B111CB6
:401AC0001A1C1423081C111C1A1C05F0EEFA3B4B1B78002B04D1FFF7C1FF384B01221A707B68002B5CD0364B7A681A603E23FB181B88002B29D11023FB181C22BA185A60B3
:401B00001023FB182022BA181A601023FB1800221A812023FB181B221A802023FB181B225A802023FB1804221A711C23FB1800221A703E23FC181023FA180E23FB18101C05
:401B4000191C05F0C9FB031C23803E23FB181B88002B29D13E23FC181A481B49AE231A012823FD1805230093184B0193184B02932B1C05F00DFB031C23803E23FB181B882B
:401B8000002B11D1134B01221A703E23FC18124B181C1D21082211F0B9F9031C238003E03E23FB1801221A803E23FB181B88181CBD4610B0B0BDC0462C7D01006C1000204F
:401BC0006C2200200D1F0000C8000020808901007902000080220020487D010090B585B000AF021CFB1D1A70FB1D1B78022B04D90E23FB1801221A804BE0294B1B78042B16
:401C000042D1284B1B78DBB21A1C042313403BD1FB1D1B78002B0BD1234B1E221A82224B5B6820221A80204B5B6830225A8010E0FB1D1B78012B0CD11B4B96221A821A4B1D
:401C40005B68C822D2001A80174B5B688022D2015A80164BFA1D12781A700E23FC18124B181C0FF07DFA031C23800E23FB181B88002B08D10B4B1B78DBB204221343DAB2D4
:401C8000084B1A7005E004E00E23FB180422FF321A800E23FB181B88181CBD4605B090BD802200208B220020FC0B00208A22002080B584B000AF78600A1CFB1C1A700023CD
:401CC000BB60BB68002B20D07B689A79BB681A700F23FB1800221A7012E00F23FB181B780133BA68D3180F22BA18127879688A5C1A700F23FB181A780F23FB1801321A7035
:401D00000F23FB181B78052BE7D9BD4604B080BD80B582B000AF78607B681B789AB27B6801331B789BB21B029BB213439BB2181CBD4602B080BDC04690B585B000AF786006
:401D40000F23FB1800221A707B689B890D22934237D17B681A1D7B680F217C18101C00211A1C402311F020F9031C23700F23FB181B78002B1DD17B685B68181CFFF7C8FF64
:401D8000031C1A1C022313409BB2002B08D0104B1B68822251007A68081C111C984708E00B4B1B680622FF32111C7A68081C111C9847084B1B78DBB201229343DAB2054B80
:401DC0001A700F23FB181B78181CBD4605B090BD6C2200208B22002090B585B000AF78600F23FC187B68181CFFF7A6FF031C2370144B1B78DBB21A1C012313401FD10F23D4
:401E0000FB181B78002B16D00823FB1812229A707B689A890823FB181A800823FB180F22BA181278DA707B680822BA181868111C10F0B8FA03E07B68186810F047FBBD46B3
:401E400005B090BD8B22002080B582B000AF7860BD4602B080BDC04680B500AF034B00225A70024B00221A70BD4680BD8822002080B582B000AF7860BD4602B080BDC046A6
:401E800080B500AFBD4680BD80B584B000AF78600E23FB1800221A707B689B79002B1CD10F23FB1800221A7012E00F23FB181B787A68D35C002B04D00E23FB1801221A7053
:401EC0000BE00F23FB181A780F23FB1801321A700F23FB181B78052BE7D90E23FB181B78181CBD4604B080BD80B582B000AF021CBB1D1A80BD4602B080BDC04680B582B052
:401F000000AF7860BD4602B080BDC04680B588B000AF021C3960FB1D1A70BE4B1B78DBB201221343DAB2BB4B1A70FB1D1B78412B00D18DE123DC212B00D1EAE00DDC022B9D
:401F400000D1BCE002DC012B3BD0E0E1052B00D1BAE0062B00D1BCE0D9E1272B00D101E106DC242B00D1F3E0262B00D106E1CEE1282B00D1FEE02A2B00D1EEE0C7E14F2B81
:401F800000D1BDE10BDC432B00D18AE100DA85E14C2B00D1A2E14E2B00D1B3E1B7E1572B00D1B1E106DC502B00D1AFE1542B00D199E1ACE1712B00D126E1FA2B00D197E1C4
:401FC000A5E11023FB1807221A701023FB1800225A701023FB18181C06F0FEFF1023FB1807221A701023FB1801225A701023FB18181C06F0F1FF884B1B68181CFFF744FF74
:40200000031E11D0844B1B68181C05F093F8824B1B68181C0021FFF74BFE7F4B1B68181C0121FFF745FE36E07C4B1B781A1C3F231A407B4B1B78191C3F230B409B011A4342
:40204000784B1B78191C1F230B401B031A43764B1B78191C7F230B405B041343BB61BB69DAB2724B1A70BB691B0ADAB26F4B5A70BB691B0CDAB26D4B9A706C4B181C05F0BD
:4020800059F86A4B181C0021FFF712FE674B181C0121FFF70DFE00200EF012FF0C23FB183F221A700C23FB1800225A700C23FB18181C0EF023FF5E4B04221A7027E13B6892
:4020C000181CFFF7D5FE22E13B681A78594B1A701DE13B687B617B691B78002B18D17B695B78002B0BD1544B0022DA80524B00229A80514B514A1A607B694F4A5A60454B4B
:402100001B78DBB201229343DAB2424B1A70FEE0FDE0404B1B78DBB21A1C2023134016D1474B1B78102B02D1454B0522DA70454B1A78434B101C191C0EF0D2FF354B1B78A3
:40214000DBB201221343DAB2324B1A70DFE0DEE03B685A783C4B1A70D9E03B68181CFFF7CDFED4E03B68181CFFF7C8FE304B02221A70CCE02E4B04221A70C8E02C4B1B787B
:40218000022B40D0234B1B78DBB21A1C0123134039D0204B1B78DBB21A1C042313400BD0234B03221A701B4B1B78DBB204229343DAB2184B1A7026E0164B1B78DBB21A1CB3
:4021C000082313400BD01A4B04221A70114B1B78DBB208229343DAB20E4B1A7013E0144B1B78032B0FD1124B04221A70174B1B78002B08D10120FFF7F1FC031E03D10C4B3D
:4022000003221A7083E082E03B681B88181CFFF76BFE7CE08B220020180C00207CF1FF0F7DF1FF0F7BF1FF0F78F1FF0F100C0020802200208422002070100020A80B0020C5
:40224000C80C002088220020702200208A2200203C4A3B68111C1A1C0223081C111C1A1C04F023FF384B00221A70364B1B781A1C131C5B009B189B009E2292009A18334B01
:40228000D3180133324A111C1A1C0C23081C111C1A1C04F00AFFFFF7F3FD38E0FFF7DCFD35E03B685B88162B05D81E23FB183A6852881A8003E01E23FB1817221A803B68D0
:4022C0001E22BA1811881A8800231204120C1B0C1B041343181C10F06FF818E03B68181CFFF77AFD13E03B68181CFFF7ADFD0EE0184B1B7801221343DAB2164B1A7006E0A3
:40230000C04604E0C04602E0C04600E0C046124B1B78DBB21A1C112313400FD00E4B1B78DBB201229343DAB20B4B1A700B4B1B68FA1D11783A68081C111C9847BD4608B0E2
:4023400080BDC04688220020842200208089010074220020682200208B2200206C22002080B500AFBD4680BD80B500AF00F032F8BD4680BD80B500AF064B064A12688021A3
:4023800009060A431A6000F019F800F01FF8BD4680BDC0460000244080B500AF064B1B78002B04D1FFF7E0FF034B01221A70FFF7E1FFBD4680BDC0467810002080B500AF55
:4023C000092000F0F9FBBD4680BDC04680B500AFBD4680BD80B500AF204B00221A60204B204A1A60204B214A1A60214B00221A60204B00221A60204B1C4A1A601F4B0022F6
:402400001A60092000F0ECFB0920032100F080FB1B4B0920191C00F055FB1A4B00221A60194B00221A60194B00221A60184B1422FF321A60174B00221A60174B00221A6025
:40244000164B10221A70164B00221A80154B00221A60154B00221A60BD4680BD0000244060002440C7080080000324400701008004032440100324400002244004022440D2
:40248000FD320000C80E2440880E2440480F2440080F2440C80F2440880F24408C2200209A220020A02200209422002080B586B000AFF860B9607A603B6004237B61BB68C5
:4024C000002B20D0324B1B78DBB2102B0CD1092000F086FB2F4B1B680122134001D0082300E000237B610EE0294B1B78DBB2602B09D1294B1B889BB2082293439AB2264B1C
:402500001A8000237B617B69002B38D1204B28221A70224B00221A60214B00221A60214B7A681A60204BBA681A603B68DAB21F4B1A70FB685B00FF221340FB60164B1B8817
:402540009BB2022293439AB2134B1A80184B194A1A60194B40221A60184B40221A603B680122134005D000F0E7F8154BFA681A6005E0134BFA681A60124B02221A600920D5
:4025800000F01AFB7B69181CBD4606B080BDC0468C220020640024409A22002090220020942200209C220020A422002098220020000F244017030000800F2440880F2440CF
:4025C000400224406800244080B586B000AFF860B9607A603B6004237B61BB68002B20D0374B1B78DBB2102B0CD1092000F0F8FA344B1B680122134001D0082300E00023EC
:402600007B610EE02E4B1B78DBB2602B09D12E4B1B889BB2082293439AB22B4B1A8000237B617B69002B43D1254B29221A70274B00221A60264B7A681A60264BBA681A60BE
:402640003B68DAB2244B1A70FB685B00FF22134001221343FB601C4B1B889BB2012293439AB2194B1A801D4B1D4A1A60184B1B68072B03D81B4B04221A6009E01A4B1A4A9E
:402680001268802149000A431A60164B08221A603B680122134005D000F04EF8134BFA681A6005E0114BFA681A60114B02221A60092000F081FA7B69181CBD4606B080BDD3
:4026C0008C220020640024409A220020A0220020AC220020A822002098220020000F244017030000C80F244060002440400224406800244080B582B000AF092000F070FA3D
:402700000B4B1B889BB27B600A4B1B78DBB220221340DBB2002B03D07B68042213437B60092000F049FA7B68181CBD4602B080BD9A2200208C22002080B582B000AF012360
:402740007B60084B1B682022134001D0082300E000237A6813437B60034B7A681A60BD4602B080BD640024406800244080B500AF094B0A4A1A600A4B0C221A60012000F0BD
:4027800085F8084B181C00F057F8064B181C00F039F8BD4680BDC04600012040000001022401204060EA000090B583B000AFFC1D00F0EBF8031C2370084B084A12680121B1
:4027C0000A431A60FB1D1B78181C00F0E2F80120182100F03FF8BD4603B090BD0000204080B500AF064B1B78002B04D1FFF7BEFF034B01221A70FFF7D7FFBD4680BDC046FD
:402800008010002080B582B000AF7860034B7A681204120C1A60BD4602B080BD0801204080B500AF034B1B681B041B0C181CBD4680BDC0460801204080B582B000AF7860F5
:40284000034B7A681204120C1A60BD4602B080BD1401204090B585B000AF786039600F23FC1800F092F8031C2370074B3A68796891400A1C1A600F23FB181B78181C00F0C5
:4028800088F8BD4605B090BD0800204080B582B000AF7860024B7A681A60BD4602B080BD3801204080B582B000AF7860024B7A681A60BD4602B080BD3001204080B582B088
:4028C00000AF786000F04CF87B68181C00F008F8032000F013F800F039F8BD4602B080BD80B582B000AF7860034B84217A685A50BD4602B080BDC0460000002090B585B0E6
:4029000000AF021CFB1D1A700E23FB600B23FC1800F03BF8031C23700A4B0A4A12680A491140FA1D1078FA689040021C0A431A600B23FB181B78181C00F02BF8BD4605B035
:4029400090BDC04610E400E0FF3FFFFF80B500AF024B802292021A60BD4680BD00E100E080B500AF024B802292021A60BD4680BD80E100E0000000000230800803D00138EA
:40298000FDD1C046C046C0467047EFF3108072B6704780F31088704790B58BB000AF78602723FC18FFF7F1FF031C2370184B1A680C23FB181A60174B1A680C23FB185A60EF
:4029C0007B68033B144AD35C1A1C0C23FB189A60124B1A680C23FB18DA601C23FB18104A1A600C23FA181C23FB185A600D4B1C22BA181A600C4B0D4A1A600A4B1B682723BD
:402A0000FB181B78181CFFF7C4FFBD460BB090BD08010B4000010B408C7F010030001040B6EA000008001040040010401700008080B584B000AF78600023FB60154B154ABC
:402A4000126801210A431A60134B144A1A60144B134A1268802109020A431A607B68002B12D01023FB600CE0012000F0FBF800F019F8031E02D00023FB6005E07B68013B30
:402A80007B607B68002BEFD1FB68181CBD4604B080BDC04660F02E4078002E400220000010002E4080B582B000AF054B1B68012213407B607B68181CBD4602B080BDC0464F
:402AC0000C002E4080B584B000AF021C3960FB1D1A7080239B05FB60FB1D1B781F2B02D9002000F091F8FB1D1B7810339B00FA68D3181B68BB60FB1D1B7810339B00FA6885
:402B0000D3183A681A60BB68181CBD4604B080BD90B587B000AF021CFB1D1A70BB1D0A1C1A70BB1D1B78032B02D9002000F06CF8FB1D1B781F2B02D9002000F065F8FB1D93
:402B40001B7803221340DB0006337B611323FC18FFF71BFF031C2370FB1D1B789B08DBB29B00144A944663441B68FB607B6903229A40131CDA43FB681340FB60BB1D1A7871
:402B80007B699A40131CFA681343FB60FB1D1B789B08DBB29B00074A94466344FA681A601323FB181B78181CFFF7F3FEBD4607B090BDC04600E400E080B582B000AF021CF5
:402BC000FB1D1A70054BFA1D12781F210A40012191400A1C1A60BD4602B080BD00E100E080B582B000AF021CFB1D1A70054BFA1D12781F210A40012191400A1C1A60BD468B
:402C000002B080BD80E100E080B582B000AF021CFB1D1A7001BEBD4602B080BD80B582B000AF786009E00C4B1B68181CFFF7A4FE7B680A4A944663447B607A6880231B022B
:402C40009A42F0D8064B1B687A685343181CFFF793FEBD4602B080BDDC0C00200080FFFFD40C002080B582B000AF021CBB1D1A80BB1D1B88044A12785343181CFFF77CFEFE
:402C8000BD4602B080BDC046D80C002080B500AF0E4B0E4A126801218A431A600B4B0B4A126802218A431A60094B094A126830218A4310210A431A60054B054A1268072199
:402CC0008A4301210A431A60BD4680BD00F02E4000FF2E4080B500AF0E4B0E4A126802218A431A600C4B0C4A126807218A4302210A431A60084B084A126830218A43202116
:402D00000A431A60034B034A126801210A431A60BD4680BD00F02E4000FF2E4080B500AFFFF7B4FF044B044A1268802109060A431A60BD4680BDC04600F02E4080B584B09B
:402D400000AF78600C4B1B6801221340FB607B68002B02D0012B03D005E0FFF797FF06E0FFF7B8FF03E00020FFF74EFFC046FB68181CBD4604B080BD00F02E4090B583B091
:402D800000AFFC1DFFF701FE031C2370074B074A1268C02109020A431A60FB1D1B78181CFFF7F7FDBD4603B090BDC04600010B4080B500AF054B1A68C0231B02134001D0DC
:402DC000012300E00023181CBD4680BD00010B4090B583B000AFFC1DFFF7D7FD031C23700C4B0C4A12680C490A408021C9010A431A60084B074A126807490A4080210902D4
:402E00000A431A60FB1D1B78181CFFF7C2FDBD4603B090BD00010B40FF3FFFFF90B585B000AF78600B23FC18FFF7AFFD031C2370FFF7BEFF031E04D00123FB60FFF7C8FF31
:402E400001E00023FB607B680D4A13407B600D4B0C4A12680C4911407A680A431A60094B1B68FB68012B01D1FFF788FF0B23FB181B78181CFFF78DFDBD4605B090BDC046CC
:402E80000404040010020B40FBFBFBFF80B500AF334B1B68042213401FD0324B1B680422134017D0304B1B6804221340DA432D4B1B681A402B4B1A602B4B1B68042293433E
:402EC0001A1C294B1A60294B1B68002B02D0274B1B6898470420FFF7A1FF214B1A688023DB00134022D01F4B1A688023DB00134017D01D4B1A688023DB001340DA43194B9B
:402F00001B681A40174B1A60174B1B68184A1A40154B1A60154B5B68002B02D0134B5B6898478023DB00181CFFF778FF0C4B1A688023DB02134011D00A4B1A688023DB023A
:402F4000134006D0094B9B68002B02D0074B9B6898478023DB02181CFFF760FFBD4680BD10020B40E40C00208C10002090100020FFFBFFFF80B500AF064B1B78002B04D1AE
:402F800000F00AF8034B01221A7000F00BF9BD4680BDC046AC10002080B584B000AF0F200321FFF7B5FD624B0F20191CFFF78AFD604B03221A60604B1B68002B01DA5F4947
:402FC00000E05F495F4B5F4A12680A431A605E4B5E4A1A605E4B5F4A1A605F4B00221A605E4B5F4A1A605F4B5D4A1A605E4B5E4A1268802149020A431A605C4B5B4A1268FD
:40300000802149020A431A60594B00221A60594B00221A60584B01221A60584B1B687B607B68574A13407B607B688022920513437B607B68012293437B60504B7A681A606F
:403040000023FB606EE04F4BFA689200D258DC239B0113407B604C4AFB68D3181B781A1C7B6813437B60FB689B00484A944663447A681A60434BFA689200D35801221340B2
:4030800009D03B4B3A4A1268F96801208840011C89B20A431A603B4BFA689200D3580222134009D0334B334A1268F96801208840011C89B20A431A60324BFA689200D258DC
:4030C00080239B00134003D080235B00BB6002E080235B01BB602B4BFA689200D25880235B00134005D12A4BFA6852000021D15204E0274BFA6852000021D152BB68254A4F
:403100005343254A94466344181C244901F0A0F8031C9BB219B2224BFA689200D150FB680133FB60FB68012B8DD9BD4604B080BDE132000020003A4080033A4070201010F1
:403140007020001000003A4004003A408C00008018003A400000FF071C003A4010003A400400040014003A4000033A4040033A4028023A4038023A4018023A4030003A408D
:40318000FFFFFFDFBC7F0100C47F010080003A40B822002010270000E40C0000C8190000B022002080B500AF0A4B1B68002B0EDBC046094B1B68002BFBDB064B054A1268FD
:4031C000802109060A431A600A20FFF74BFDBD4680BDC04600003A4008023A4080B500AF044B044A1268802149020A431A60BD4680BDC04604003A4080B584B000AF78604A
:403200007B68012B02D90020FFF7FEFC7B68012B09D87B689B00084A944663441B681B041B0CFB6001E00023FB60FB689BB21BB2181CBD4604B080BD80013A4080B584B0C7
:4032400000AF78600A1CBB1C1A807B68012B02D90020FFF7D9FC1F4B7A685200D35A99B2BB1C1A888BB2D31A9AB2BB1C1A80BB1C00229B5E184A5A43BB1C00215B5E002B18
:4032800008DD164B79688900CB58002B00DA01335B1008E0114B79688900CB58002B00DA01335B105B42D1180C4B7A689200D358081C191C00F0CCFF031C1A1C0E23FB18F9
:4032C0001A800E23FB181B881BB2181CBD4604B080BDC046B822002010270000B022002080B582B000AF044B1B687B60024B7A681A60BD4602B080BD10023A4080B582B0DE
:4033000000AF00233B60C04B1B68002B02D0BE4B1B689847BD4B1B680122134002D0BC4B00221A60BB4B1B78DBB220221340DBB2002B38D0B84B1A6880235B0013400AD089
:40334000B64B1B889BB2C022920013439AB2B34B1A8001233B60B04B1B68012213400AD0AE4B1B889BB29022920013439AB2AB4B1A8001233B603B68002B14D0A54B1B78CE
:40338000DBB201221340DBB2002B01D0012300E00223A24A128892B213439AB29F4B1A809C4B00221A709B4B1B78DBB220221340DBB2002B00D1A4E1974B1B681022134042
:4033C00018D0974B10221A60924B1B78DBB201221340DBB2002B01D0012300E002238F4A128892B213439AB28C4B1A80894B10221A70AAE1874B1B78DBB208221340DBB251
:40340000002B29D0844B1B68022213400ED0844B02221A60814B1B889BB28822920013439AB27E4B1A8001233B6015E0794B1B78DBB201221340DBB2002B03D0754B2522B7
:403440001A7009E0734B24221A70764B1B68002B02D0754B10221A606E4B1B78DBB204221340DBB2002B00D113E16A4B1B78DBB201221340DBB2002B5BD06C4B1B6808223D
:40348000134033D06A4B1A686A4B1B681F211940694B1B68CB18D31A7B607B68082B02D908237B600CE07B68002B09D1634B634A126863490A401A6008237B6001233B60F7
:4034C00010E0604B1A685C4B1B68D2185E4B1B68DBB21370584B1B685A1C574B1A607B68013B7B607B68002BEBD11EE04F4B1B680422134019D0534B1A684F4B1B68D2183F
:40350000514B1B68DBB213704B4B1B685A1C4A4B1A60494B1A68464B1B689A4203D24B4B04221A6001E001233B60494B494A1A60AFE0394B1B680222134032D0384B0222B6
:403540001A60454B1B681F221A40434B196880231B020B4001D0012300E00023D2183F4B1B689A1A3D4B1A603C4B1A683C4B1A602A4B1B889BB28422920013439AB2274BA9
:403580001A80384B374A1268802149020A431A60344B344A126834490A401A6001233B6077E0324B1B681022134067D022E02B4B1A681C4B1B689A421BD21A4B1B685A1EA9
:4035C000264B1B689A4205D1294B40221A60164B40221A60274A284B1968204B1B68CB181B78DBB213601D4B1B685A1C1B4B1A6000E005E0184B1B681F221340082BD6D175
:403600001B4B10221A6044E07C1000208C0E2440880E24408C2200200C0F24409A220020000F24409C220020880F2440CC0F2440AC22002008032440A022002060002440F9
:40364000FFFEFFFFA82200204003244068002440C00F2440ED0F000008022440902200209422002004022440FFFFFEFF8C0F2440800F244040022440A4220020344B1B68C8
:403680004022134005D0334B1A68334B1A6001233B603B68002B58D0304B304A126830490A401A602F4B00221A602F4B00221A602E4B1B78DBB202221340DBB2002B15D04E
:4036C0002B4B1B78DBB201221340DBB2002B01D0092300E00A23274A128892B213439AB2244B1A80224B60221A702EE0224B234A126820210A4001D0182200E010221A6005
:4037000023E01B4B1B78DBB210221340DBB2002B1BD11B4B1A4A1268520052081A60144B10221A700D4B0D4A126816490A401A600A4B0A4A126814490A401A60104B104A0D
:403740001268802109060A431A60BD4602B080BD8C0F2440902200209422002060002440FFFEFFFFC80F2440880F2440982200208C2200209A2200206800244064002440B2
:4037800000002440FF5FFFFFFFFCFFFFF0B5474680B48CB0041C0D1C00F084F80F1C0021061C3B4B321C595698463B1C013111D0201C291C00F07CFA321C3B1C002809D033
:4037C00000220023201C291C00F05EFE321C3B1C002805D0101C191C0CB004BC9046F0BD2C4B0A90039343461E780494059506940795002E14D1E022274B120608920993B2
:40380000201C291C0022002300F024FE002835D10123029302A800F079FA002814D10FE000221E4B201C08920993291C0022002300F010FE002813D101230293022EE9D18C
:4038400003F0F8FB21230360154800F061FA089009910A9B0193002B13D1089A099BB9E702230293022E04D002A800F04FFA0028EFD103F0DFFB22230360EAE7022302932A
:40388000F2E703F0D7FB0A9B01930360E5E7C046D20F0020C87F0100FFFFEFC70000F0FFCC7F0100F0B5454657464E46E0B4DC4A88B0041C0D1C0B1E934258DC4A00520852
:4038C000024300D1F0E0002D00DA7AE10022D54B02F02CFC3626D44A041C0D1C0B1C7642934248DC1A151B031B0B9846CF4980238C46201C444662449619CD4A5B03424495
:403900001340CC4A5A4014431B1599460022C94B211C02F0A5FE434602331B03B1440F1C061C1B0B0022022B31DC002300F092FD002800D1BFE04B46002B00D14AE14846F6
:4039400003F008FABC4ABD4B041C0D1C02F0EEFBBB4A061C0F1C201C291CBA4B02F0E6FB021C0B1C301C391C01F07AFC09E0AE4A00269342B6DD201C291C221C2B1C01F0C2
:403980006FFC08B01CBC90469946A246F0BD8023DB0501F065FC021C0B1C301C391C01F087FF041C0D1C48460494059503F0D2F9221C029003912B1C201C291C02F0B6FBFA
:4039C000031C0C1CA04A00930194424492461A1C231C02F0ABFB041C0D1C9C4A9C4B02F0A5FB9C4A9C4B01F03BFC221C2B1C02F09DFB9A4A9A4B01F033FC221C2B1C02F0F7
:403A000095FB984A984B01F02BFC009A019B02F08DFB964A00900191954B201C291C02F085FB944A944B01F01BFC221C2B1C02F07DFB924A924B01F013FC221C2B1C02F0B0
:403A400075FB021C0B1C0098019901F009FC42468C4B041C9B1A52460D1C1343002B50DD0022894B301C391C02F060FB3B1C321C02F05CFB4B4600900191002B70D1221C97
:403A80002B1C01F0EDFB049A059B02F04FFB021C0B1C0098019902F0E3FD021C0B1C301C391C02F0DDFD6CE7002200230020774901F0FEFE65E7321C3B1C301C391C02F088
:403AC00035FB734A041C0D1C724B301C391C02F02DFB021C0B1C00206B4902F0C1FD0B1C021C291C201C02F021FB4B46041C0D1C002B72D1301C391C221C2B1C02F0B0FD6E
:403B00003FE74B46002B00D1C6E0029803994A4A4A4B02F00BFB221C009001912B1C301C391C02F09DFD049A059B02F0FFFA444A041C0D1C02980399424B02F0F7FA021C3D
:403B40000B1C201C291C02F08BFD321C3B1C02F087FD021C0B1C0098019902F081FD10E702980399344A354B02F0E0FA221C06900791009801992B1C01F072FB049A059BA9
:403B800002F0D4FA2E4A041C0D1C029803992D4B02F0CCFA021C0B1C201C291C01F060FB021C0B1C0098019902F05AFD321C3B1C02F056FD021C0B1C0698079902F050FDA0
:403BC000DFE6221C2B1C02F04BFD0022002301F06FFED6E600200021D3E6484603F0BAF8154A164B0090019102F0A0FA144A0290039100980199134B02F098FA021C0B1C6A
:403C0000201C291C02F02CFD321C3B1C02F028FD021C0B1C0298039902F022FDB1E6C046FFFF0F0000005043FFFFEF7F01FCFFFF645F09000000F03F0000E0FE422EE63F8E
:403C4000763C7935EF39EA3D86EBF9FF44523EDF12F1C23FDE03CB966446C73F599322942449D23F935555555555E53F9FC678D0099AC33FAF788E1DC571CC3F04FA979970
:403C80009999D93F51B806000000E03F000050C3555555555555D53F221C2B1C301C391C02F0DEFC049A059B02F040FAF5E6C0460A1C031C024330B50220002A00D130BDB1
:403CC00080221206914216D00C4A04208C180C4A9442F4D90B4C0C199442F0D90A4A4900490803209142EAD9064A00209142E6D158425841E3E7002BE1D0EFE70000F0FFE0
:403D0000FFFFDF7F0000F07FFFFF0F0000207047002001497047C0460000F87F80B582B000AF78600A1CBB1C1A80BB1C1A887B681A60BD4602B080BD80B582B000AF7860FB
:403D40000A1CBB1C1A80BB1C1A887B681A60BD4602B080BD80B584B000AF494B1B78DBB21B02484A1278D2B21343FB60464B1B78DBB21B02454A1278D2B21343BB60BB68AB
:403D8000434A934207D1FB68072B04D1414BBB600423FB6009E0BA68D4231B019A4204D1FB68042B01D13B4BBB603B4BBA681A603A4BFA681A603A4B1B78DBB21B02394A9A
:403DC0001278D2B21343FB60FA6880239B019A4202D0FB68002B01D1334BFB60334BFA681A60334B1B78DBB21B02324A1278D2B21343FB60FB68304A934206D0FB682F4AC8
:403E0000934202D0FB68052B01D12D4BFB602D4BFA681A602C4B1B681B097B602B4B1B68AA2B29D17B68012B26D9214B1B78DBB20E2B21D1264B1B78DBB29BB21B0299B283
:403E4000244B1B78DBB29AB2BB1C0A431A80224BBA1C12881A60214B1B78DBB29BB21B0299B21F4B1B78DBB29AB23B1C0A431A801C4B3A1C12881A60BD4604B080BDC04632
:403E8000D9F0FF0FD8F0FF0FDFF0FF0FDEF0FF0F580B0000580D00006C002E4074002E40DBF0FF0FDAF0FF0F0220000078002E40DDF0FF0FDCF0FF0F0F0F00000505000082
:403EC000050F000080002E40EC0F00F0E00F00F06DF2FF0F6CF2FF0F84002E406FF2FF0F6EF2FF0F94002E4080B582B000AF021CBB1D1A80BB1D1B88181CFEF7B3FEBD464E
:403F000002B080BD80B500AF00F0DEF8BD4680BD80B500AF00F0E2F8BD4680BD80B500AF00F0DCF8044B181C00F09CF8032000F0A5F8BD4680BDC0462541000080B500AFCB
:403F4000024B181C00F07CF8BD4680BD2541000080B500AF0223FF33181CBD4680BDC04680B582B000AF78602B23181CBD4602B080BDC04680B582B000AF78602B23181C29
:403F8000BD4602B080BDC04680B582B000AF78602B23181CBD4602B080BDC04680B582B000AF78602B23181CBD4602B080BDC04680B582B000AF78602B23181CBD4602B014
:403FC00080BDC04680B582B000AF78602B23181CBD4602B080BDC04680B582B000AF78602B23181CBD4602B080BDC04680B582B000AF78602B23181CBD4602B080BDC04646
:4040000080B500AF2B23181CBD4680BD80B582B000AF021CFB1D1A702B23181CBD4602B080BDC04680B582B000AF786039602B23181CBD4602B080BD80B500AFBD4680BD6B
:4040400080B582B000AF786000F048F87B68181C00F008F8032000F011F800F035F8BD4602B080BD80B582B000AF7860024B7A681A67BD4602B080BD0000002090B585B0C6
:4040800000AF021CFB1D1A700623FB600B23FC18FEF77BFC031C23700A4B0A4A1268C0218A43111CFA1D1078FA689040021C0A431A600B23FB181B78181CFEF76AFCBD4693
:4040C00005B090BD0CE400E080B500AF024B802252011A60BD4680BD00E100E080B500AF024B802252011A60BD4680BD80E100E090B583B000AFFC1DFEF747FC031C237002
:40410000074B074A126804218A431A6030BFFB1D1B78181CFEF73DFCBD4603B090BDC04610ED00E080B500AF13F09EFDBD4680BD002243088B4274D303098B425FD3030AB9
:404140008B4244D3030B8B4228D3030C8B420DD3FF22090212BA030C8B4202D31212090265D0030B8B4219D300E0090AC30B8B4201D3CB03C01A5241830B8B4201D38B039B
:40418000C01A5241430B8B4201D34B03C01A5241030B8B4201D30B03C01A5241C30A8B4201D3CB02C01A5241830A8B4201D38B02C01A5241430A8B4201D34B02C01A524146
:4041C000030A8B4201D30B02C01A5241CDD2C3098B4201D3CB01C01A524183098B4201D38B01C01A524143098B4201D34B01C01A524103098B4201D30B01C01A5241C30895
:404200008B4201D3CB00C01A524183088B4201D38B00C01A524143088B4201D34B00C01A5241411A00D20146524110467047FFE701B5002000F0FCF802BDC0460029F7D074
:4042400003B5FFF775FF0EBC4243891A1847C04603460B437FD4002243088B4274D303098B425FD3030A8B4244D3030B8B4228D3030C8B420DD3FF22090212BA030C8B42F8
:4042800002D31212090265D0030B8B4219D300E0090AC30B8B4201D3CB03C01A5241830B8B4201D38B03C01A5241430B8B4201D34B03C01A5241030B8B4201D30B03C01AF6
:4042C0005241C30A8B4201D3CB02C01A5241830A8B4201D38B02C01A5241430A8B4201D34B02C01A5241030A8B4201D30B02C01A5241CDD2C3098B4201D3CB01C01A524146
:4043000083098B4201D38B01C01A524143098B4201D34B01C01A524103098B4201D30B01C01A5241C3088B4201D3CB00C01A524183088B4201D38B00C01A524143088B42AB
:4043400001D34B00C01A5241411A00D201465241104670475DE0CA0F00D04942031000D34042534000229C4603098B422DD3030A8B4212D3FC22890112BA030A8B420CD368
:40438000890192118B4208D3890192118B4204D389013AD0921100E08909C3098B4201D3CB01C01A524183098B4201D38B01C01A524143098B4201D34B01C01A5241030930
:4043C0008B4201D30B01C01A5241C3088B4201D3CB00C01A524183088B4201D38B00C01A5241D9D243088B4201D34B00C01A5241411A00D20146634652415B10104601D347
:404400004042002B00D54942704763465B1000D3404201B5002000F00BF802BD0029F8D003B5FFF715FF0EBC4243891A1847C0467047C0468446101C62468C46191C6346B2
:4044400000E0C0461FB501F00BFE002801D40021C8421FBD10B501F04FFD4042013010BD10B501F0FDFD002801DB002010BD012010BDC04610B501F0F3FD002801DD0020A1
:4044800010BD012010BDC04610B501F079FD002801DC002010BD012010BDC04610B501F06FFD002801DA002010BD012010BDC0468446081C6146FFE71FB500F073FB00284E
:4044C00001D40021C8421FBD10B500F0F7FA4042013010BD10B500F065FB002801DB002010BD012010BDC04610B500F05BFB002801DD002010BD012010BDC04610B500F019
:4045000007FB002801DC002010BD012010BDC04610B500F0FDFA002801DA002010BD012010BDC0469E2110B5C905041CFFF7F0FF002803D1201C00F02BFE10BD9E21201C93
:40454000C90500F0A7FC00F023FE80231B069C466044F2E7F8B54A00430244004E02C50F240E281C9B09120EC90FB7098D4240D0A01A002800DC84E0002A1CD1002F5CD1BC
:404580005A0704D00F221A40042A00D004338022D2041A40281C002A24D00134FF2C00D17BE09B015B0AE4B25B02E4055B0A2343C0071843F8BDFF2CE2D08022D204174318
:4045C00001261B2808DC391C20223E1CC140101A8640771EBE410E439B1B5A0133D4281C5A07CFD1DB08FF2C1ED05B025B0AE4B2DAE7A11A002957DD002A3AD0FF2CBFD02E
:404600008022D204174301261B2972DD9B195A01E5D50134FF2C00D187E001218A4A194013405B080B43ABE7002B36D08022D20313435B025B0AFF24B6E7013800283FD1B7
:40464000DB1B5A01CBD59B019E09301C02F0D4FC05388640844223DC001B1F24321C431C201ADA408640131C741EA6410024334386E7002F00D183E70139002950D1DB197A
:40468000C5E7002820D1621CD2B2012A5EDDDE1B720128D5FE1A0D1CD7E7FF24002383E7694B241A33406BE7002958D1621CD1B201293CDDFF2A37D0FB185B08141C5FE74C
:4046C000FF2C00D07CE75BE7002C1ED0FF2A23D08024E404404223431B285BDD0123FB1A141C0D1CADE7002EAFD100230020002478E73A1CCA40944620223E1C511A8E404C
:404700006246771EBE41164380E7002B3ED0C0430028E4D0FF2ADFD13B1CFF240D1C2FE7FF2C00D06FE72BE7FF2400235AE7002C5AD1002B7FD0002F00D121E7DB195A01C1
:4047400000D44CE7404A0134134019E7002C15D1002B2FD1002F5DD03B1C0D1C10E7002C21D1002B53D0C943002904D0FF2A4BD01B2957DD0123DB19141C48E7002B22D14A
:40478000002F4AD03B1C0D1CFF24F9E63B1C141C0D1CF5E61D1C2024C540201A8340581E83412B439BE7FF2A2ED08024E40449422343DDE7002F00D1E2E6DA1B50013CD573
:4047C000FB1A0D1CDCE6FF24002F00D1D8E68022DB08D203134204D0FE08164201D1331C0D1CDB00FF24CBE6002B0DD0FF24002F00D1C5E68022DB08D2031342F1D0FE08B2
:404800001642EED1331CECE73B1CFF24B8E63B1C141CB5E6231C0020E4E6802300209B04FF24DFE61E1C2024CE40611A8B40591E8B4133439FE73B1CA2E6131E00D0CEE6ED
:4048400000230020CEE6C046FFFFFFFBF0B556464D465F464446F0B443024500C70F83B08A465C0A2E0EB94641D0FF2E26D080231B042343DC00002398469B467F3E534628
:404880005B025D0A53465A00DB0F120E9A4639D0FF2A33D080231B042B43DD0000237F3A5146B21A46467940081C01921E430F2E00D976E07E4AB6009659B746002C30D176
:4048C00008239846063B9B46D9E780230021DB03FF245B02E4055B0AC90723430B43181C03B03CBC90469946A246AB46F0BD002C28D104239846033B9B46C0E7002D1FD1B2
:40490000022302E0002D11D10123B21A50464646784001921E430F2E27D86649B60089598F460C239846093B9B46A8E7281C02F063FB7622431F52429D40121A0023AFE7A6
:404940000323ADE7201C02F057FB431F9C4076235B421E1A002398469B4690E70025D1469B465B464846022B6FD10121FF2401400023AEE77E23019A5B429B1A1B2B6DDDE3
:4049800001214B46194000240023A2E78023DB031C4249D18023DB0323435B025B0A391C96E763016D01AB4237D389461A2001215B1B01241E1C49005B00002E01DBAB4243
:4049C00001D35B1B214301380028F3D1581E83410B431D1C019C7F34002CCBDD6B0704D00F232B40042B00D004352B0104D5019A314B8032141C1D40FE2C07DD4B460121C8
:404A0000FF241940002364E7251CAAE701214A46AB015B0AE4B211405BE7019A8946013A01921B200021C4E71D4207D023435B025B0A391C4CE700256302ABD58023DB031E
:404A40002B435B025B0A514642E7032B25D0012BC0D101210024014000233AE7291CD9402B1C019A9E3293405D1EAB410B435A0704D00F221A40042A00D004335A0105D5D9
:404A80004B46012101241940002322E701214A469B015B0A114000241BE7802301214A46DB032B435B020A405B0A111C10E7C046D07F010010800100FFFFFFF7430270B559
:404AC00042004C005D0AC30F4802120E460A240EC90FFF2A05D0FF2C08D00120A2420BD070BD0120002DFBD1FF2CF6D10120002EF6D10120A242F3D1B542F1D18B4205D0D7
:404B0000002AEDD1281C431E9841E9E70020E7E7F0B543024D024A0044005E0A240EC30F6D0A120EC90FFF2C0DD0FF2A31D0002C0DD177427741002A23D1002D21D10020A5
:404B4000002F0BD107E0002E28D1FF2A21D0002A05D08B4207D0584201231843F0BD002DF9D08B42F7D19442F5DC04DBAE42F2D80020AE42F2D25842434101205B421843C3
:404B8000ECE7002FE5D048424141012049420843E4E7002D02D1002CCBD0DAE702204042DCE7C0464302F0B542004C005E0AC30F4802120E450A240EC90FFF2A0FD0FF2CD3
:404BC0001AD0002A10D177427741002C29D0002F17D0484241410120494208430BE00220002E08D1FF2C07D0002C0AD1002D08D1584201231843F0BD0220002DFBD1002AE3
:404C0000E1D08B42F4D1A242F2DC04DBAE42EFD80020AE42EFD25842434101205B421843E9E7002DD3D10020002FE4D1E0E7C046F0B55F4656464D464446F0B4450246003B
:404C4000C40F83B00F1C6D0A360EA34645D0FF2E25D080231B041D4300239A46ED007F3E01937B025B0A98467800FB0F000E994640D0FF2838D0802342461B041343DB00DC
:404C8000984600237F384A46019F30186240411C1F430F2F69D87D4EBF00F659B746002D45D108230193063B9A46DAE793465346022B2FD15B46012400251C40FF236D02B3
:404CC000DB056D0AE4071D432543281C03B03CBC90469946A246AB46F0BD002D2CD104230193033B9A46BCE743465A4253410322D31AC8E742460123002AC4D0404602F07E
:404D00007BF94246431F9A4076235B42181A90460023B8E7032B00D1ADE0012B00D08CE05B4654461C40E4B200230025C7E70C230193093B9A4694E7281C02F05DF976269A
:404D4000431F9D4000237642361A01939A4688E780250024ED03FF23B1E74546CB469A46A5E7454693469A46A1E743462C041B0C9C46230C444626041C1C360C2F0C74438E
:404D8000351C66467D4373437743EB18260C9E19B54203D980235B029C46674424043304240C1B199D016C1EA5419B0E360C2B43BD19AD011D432B0104D5012368081D4076
:404DC0000543081C031C7F33002B2CDD690704D00F212940042900D00435290103D52C4B1D40031C8033FE2B17DD0124FF231440002564E78020C003054209D0434603420E
:404E000006D1454605436D026D0A4C46FF2356E705436D026D0AFF2351E70124AD016D0ADBB214404BE77E235B421B1A1B2B07DD012400231440002541E7081C5A46C1E71A
:404E40009E30291C8540D940681E85410D436B0704D00F232B40042B00D004356B0104D5012401231440002529E70124AD016D0A1440002323E78023DB031D4301245B4601
:404E80006D0223401C1C6D0AFF2318E750800100FFFFFFF7F8B54A00430244004D02C00F240E061C9B09120EC90FAD09FF2A00D175E001277940884250D0A01A002800DC6F
:404EC0008FE0002A1ED1002D00D075E05A0704D00F221A40042A00D0043380220120D2041A403040002A32D00134FF2C00D184E09B015B0AE4B25B02E4055B0A2343C00750
:404F00001843F8BDFF2CE1D08022D20415431B287ADD01255B1B5A015DD59B019F09381C02F06AF805388740844269DC001B1F243A1C431C201ADA408740131C7C1EA74118
:404F400000243B43C2E7131E45D100230020DB08FF2C28D05B025B0AE4B2CCE7A11A00295BDD002A2ED0FF2CB0D08022D20415431B2974DC2F1C2022CF40511A8D40691E9D
:404F80008D413D435B195A0125D50134FF2C74D001217E4A194013405B080B4396E7002D00D088E785E7002B27D08022D20313435B025B0AFF249EE701380028AAD0FF2C3B
:404FC000A5D183E7002D00D180E701390029D9D0FF2CCDD17AE75A0700D079E701203040B5E7002825D1621CD2B2012A55DD5F1B7A012DD5EF1A0E1C91E7FF2400237AE7B2
:40500000624B241A3B4061E7291C2022C140101A8540681E85410D437CE7002946D1621CD1B201292BDDFF2A26D0EB185B08141C4CE7002C15D0FF2A1AD08024E4044042BF
:4050400023431B284DDD0123EB1A141C0E1C62E7002F00D063E700230020002477E7012590E7002B39D0C0430028EDD0FF2AE8D12B1CFF240E1C29E7FF24002367E7002C84
:405080005AD1002B7FD0002D00D11FE75B195A01A1D53E4A0134134018E7002C15D1002B2FD1002D5ED02B1C0E1C0FE7002C21D1002B54D0C943002904D0FF2A4CD01B29F5
:4050C00058DD01235B19141C5DE7002B23D1002D4BD02B1C0E1CFF24F8E62B1C141C0E1CF4E61E1C2024C640201A8340581E83413343A9E7FF2A2FD08024E40449422343B5
:40510000DDE7002D00D1E1E65A1B500100D41AE7EB1A0E1CDAE6FF24002D00D1D6E68022DB08D203134204D0ED08154201D12B1C0E1CDB00FF24C9E6002B0DD0FF24002D68
:4051400000D1C3E68022DB08D2031342F1D0ED081542EED12B1CECE72B1CFF24B6E62B1C141CB3E6231C0020F1E6802300209B04FF24ECE61F1C2024CF40611A8B40591E32
:405180008B413B439EE72B1CA0E6C046FFFFFFFB4202510A4200C30F120E00207E2A0DDD9D2A0CDC802000040143952A0ADC9620821AD1400A1C58424240D0187047034A03
:4051C0009818FBE7963A91400A1CF4E7FFFFFF7F10B5041E35D001F00FFF9E21091A962909DC082830DD021C231C083A93405B025B0AC8B220E099290CDD0522231C121A66
:40520000D3401A1C031C1B339C40231C5C1EA34113431C1C052801DD431F9C400F4B2340620704D00F221440042C00D004335A010ED49B015B0AC8B25B025B0AC005184318
:4052400010BD00200023F7E763025B0AC8B2F3E79F21024A091A1340EBE7C046FFFFFFFBF0B5454657464E4694464C000A03C90FE0B488460E1C1903470FC500480A6146A8
:40528000490F01436046520A1743C0005A00640D520DDB0F8446984500D1A7E0A01A002800DC01E1002A3DD163460B4300D0D4E06B0700D188E00F232B40042B00D183E025
:4052C0002A1DAA42AD4180236D427F191B043B404646151C002B00D17CE0CC4B01349C4200D1FDE03A1CCA4BED081A405007640552020543120B640D002112030B0D1B050A
:405300006405120B1A436308C24CF60714401C43640064083443281C211C1CBC90469946A246F0BDB94B9C42C2D080231B041943382800DDECE01F2800DD21E120220E1C4A
:405340006346121A9640C340334366469640321C561EB24113430A1CC240EB1A9D42B6411D1CBA1A7642971B3B0200D497E07A02560A002E00D1B6E0301C01F03DFE031C72
:40538000083B1F2B00DDB7E09E40371C28262A1C361AF240161C9D403E439C4200DDB2E01C1B621C1F2A00DDD8E01F23291C1C1B331CA540A340D1406C1EA541D64019436D
:4053C0000D43371C002473E780231B043B40464600D082E78D4BED0878070543FA089C4232D012036405120B640D85E7A31A002B00DC94E0002A3CD0844A944200D157E77B
:40540000802212041143382B00DC05E163461943481E81410022C8B24019A8429B41051CD2195B42D7183B0239D5784B01349C4200D14CE10120764A6B083A40284018430B
:40544000D5070543570833E72B1C134348D080231B031A431203120B4EE70138002878D16346EE1AB5429B417A1A5B42D71A351C7AE7021C0A4300D11AE7013B002B00D0DF
:40548000F2E04019A8429B41CA195B42D718051CC9E7131C334300D118E1171C351C46466B0700D007E795E700287AD1621C5205520D012A00DCFBE06246AA1A9542B641CD
:4054C0009146781A7242861A320200D493E06246551BAC458041CF1B40423E1A984648E70022002508E7281C01F086FD2030031C083B1F2B00DC47E7283885402E1C002551
:405500009C4200DC4CE7424AE41A1640371CCFE6634619434B1E99410022CBB21DE7002B00D0F2E0601C43055B0D012B00DCA4E0364B984200D121E163465C19AC429B4110
:40554000CF195B42FA186408D50725435708041CAEE62E4B9C4200D0EAE6A9E6211C331C1F39CB40191C202A00D182E03F231C1BA64035436E1EB54100270D4300248EE721
:40558000031C0E1C203BDE40202874D040231B1A99400B1C62461343591E8B4100223343DBE6002C50D0194CA24200D1A8E08024240440422743382800DDD9E01F2800DDAB
:4055C00039E120243E1C241AA640B0462E1CA146C640444626434C46A5406C1EA541C74035436046451BCF1BAC45894149427F1A141C9846B8E64B464D46334300D0B8E6C6
:405600000026002700240025E4E6C046FF070000FFFF7FFFFFFF0F801F2B5BDC2022081CD21A9040814660469246D8404A4610438146524660469040021C501E8241484660
:4056400010430A1CDA40E7E63C1C2C4358D0C043002851D16046451BAC458041CF1B40423F1A141C98467FE68F4A944200D0CAE61EE600267DE700238CE73B1C2B43002C5A
:4056800000D0BDE0002B00D1F5E063460B4300D10EE663465B19AB428041CA19404217183A0200D4FCE0814A1D1C17400134FFE53A1C2A43002C51D1002A00D085E0624619
:4056C0000A4303D00F1C65469846F1E50026002700257FE6181C0A1C2038C240202B00D1A7E04020C01A8140081C63461843411E8841104300228FE66B4CA24200D05AE7F1
:405700000F1C6546141C9846D2E5002C3AD1381C284371D0DB43002B18D0634882426BD0382B00DD9DE01F2B00DDA7E020203C1CC01A8440A1462C1C8246DC404846044333
:4057400050468540681E8541DF402543654465459B417F185B42FF18141C64E6002A19D162460A4377D00F1C654698464E4C9FE53D436F1EBD410027EDB232E7041C0027B4
:40578000002527E64848824236D0802000045B420743C5E762460A4349D08024ED087807FA0824032843224209D0CE08264206D162464F07381CD20810439846321CD2009D
:4057C000470F1743C500384C72E562460A4300D16EE56246AE1AB5429241781A5242821A100200D455E66246551BAC458041CA1B4042171A98465BE50F1C6546141C57E561
:40580000002B34D063460B4311D08024ED087807FA08240328432242D1D0CB082342CED162464F07381CD20810431A1CC7E71E4C3EE5002059E7041C3E1C203CE640341C3D
:4058400020282BD04026301A87403D436F1EBD4100272543C5E680270026FF03124C0025B8E53D436F1EBD410027EDB26EE70F1C65460D4C1CE50F1C654619E51C1C381C84
:40588000203CE040041C202B0CD04020C31A9F403D436F1EBD410027254357E70027D4E71D1CFCE50027F3E7FF070000FFFF7FFFF0B55F4656464D464446F0B40F0387B0C2
:4058C00098464D003B0BCC0F061C924681469B466D0D01946BD0664B9D4235D080275B467F031F43F3009946624BFF00400F9C4607430023BB46002665440093424617038E
:405900005000D20F53463F0B400D904600D172E0574A904267D080235B031F435346554A5B0FFF001F43944653460021DB0060444246624092462D1A0E430F2E00D9A1E0B9
:405940004D48B600805987465B461E4300D076E000239B469946023308260093CEE799464346BB4601930091009B022B6BD1019B9A46002153460122002789461A403C4BBE
:4059800000213F030C0D24053F0B27433B4C1B0527401F437F00D2077F0817434846391C07B03CBC90469946A246AB46F0BD03433ED05B46002B00D19CE1584601F01CFB04
:4059C0002823311C1B1A021C5F46D940083A97400B1C96403B439B46B1460023284D00262D1A00938AE7524603213A43A0D10027002302219CE752463A4315D0002F00D1F5
:405A000085E1381C01F0F8FA021C28215046891A131CC8405146083B99409F400B1C074317480021801A83E70027002301217FE700239B4699460133042600935EE703235A
:405A40000C2600935AE7032B00D13CE2012B00D0BFE11A1C019B1A4000210023002789468EE700238027994600223F03004B87E7FF07000001FCFFFF90800100FFFF0F8027
:405A80000DFCFFFFBB4500D951E100D14CE14A46039200225C469046013D180E3F0238431B020193030C994603041B0C4946061C201C1F1C0093FEF73BFB021C7A430290D7
:405AC0004946201C171CFEF7B9FB039B09041B0C19438F420CD9029B8919013B8E4200D952E18F4200D84FE1029B8919023B0293CC1B201C4946FEF71BFB009F834647432B
:405B00004946201CFEF79AFB039A0B041404240C23439F420DD95A469B19013A9E4200D930E19F4200D82DE10222524294469B19E344029ADB1B17045A463A439346019C22
:405B4000170C220C101C04925A4611042204120C141C090C7C4305924A43414347436118100C09188C4203D980204002844667440C0C12040804120C3C198118A34200D22F
:405B8000E5E000D1DFE01F1B43465C1AA04592415242BF1AB74200D10EE1381C4946FEF7C7FA009B029043434946381C9846FEF745FB230C0F041F43B8450CD9029BBF193C
:405BC000013BBE4200D9FBE0B84500D8F8E0029BBF19023B02934346FF1A4946381CFEF7A7FA009B039043434946381C9846FEF725FB24040904240C214388450CD9039B03
:405C00008919013B8E4200D9DCE0884500D8D9E0039B8919023B03934346C91A029B039A1B04059C1A43100C13049146221C049F1B0C5A4344437B437843E318170CDB192C
:405C40009C4203D980246402A44660441C0C12041B04120C00199B18814200D296E000D1FCE04A4601231A4391469B4BEB18002B00DC99E04A4652070AD00F2249460A40B5
:405C8000042A05D00431494592418946524293445A46D20106D55A46904B1A4080239346DB00EB188E4A934200DD62E64A465946D208490711435A46894657025146012293
:405CC0005B053F0B5B0D0A405AE680205A460003024208D0074206D107433F0399463F0B4246804B4CE65F4607433F033F0B221C7C4B45E601F080F9031C2030272800DCA0
:405D00005EE6083B9E400023B346994665E6504601F072F9021C2032272A00DC75E657460838874000237BE6994500D2AFE65A46594654084A46C8075208024303924A46A3
:405D4000D2079046A9E60027884500D31CE7019F5A46BC46E044B845BF417F42BF19FF18013ABE4206D2BC425FD800D19FE03F1B934609E7B742FAD1019B4345F3D9371B47
:405D8000934601E79346D4E60293B1E64A468919013A8E4218D99146814200D061E7019A9A4200D05DE760E74F4F7F1B382F13DD012253461A404FE601235B42994654E7FC
:405DC000029308E7039327E788423CD874D0914647E7019B9A4648E71F2F44DC434B4A469C465B466544FA40AB4013434A46AA40151C6A1E95415A46FA402B43171C5A0791
:405E000009D00F221A40042A05D01A1D9A429B415B42FF18131C3A023ED55346012200211A40002701238946AAE502235B429C46019AE3449446E04490459B415B429B1994
:405E4000DF193F1BA0E6019F4A467C00BC42BF417F42BF19023AC91901949CE7002B95D1002201929BE75A46214B5B1BDA40202F27D0204B9C465B466544AB4049460B43C8
:405E8000591E8B411343072200271A4007D00F2200271A40042AB8D17A077F023F0BDB0813439946012253461A40002368E54145BBD89346002767E6019C9C42C3D3914627
:405EC0006DE70023DAE780275B463F031F433F033F0B019A034B53E5FF030000FFFFFFFEFE070000FF07000002FCFFFF1E040000E2FBFFFF3E040000F0B55F464D46444627
:405F00005646F0B41F035C00DB0F99461B4B0E034D00C90F8446360B6D0D8B4690463F0B640D9D420CD0154B9C4210D00123A54214D0181C3CBC90469946A246AB46F0BD28
:405F4000311C01230143F4D10C4B9C42EED13A430123002AEDD10123A542EAD1BE42E8D1C445E6D1CB4506D0002DE2D13043031C581E8341DDE70023DBE7C046FF070000A4
:405F8000F0B5574645464E46E0B40F034E00C90F8A4632491D035C0084463F0B760D90462D0B640DDB0F8E420FD08C4239D0002E10D13843414241418946002C27D12A4378
:405FC00025D1002000290ED108E0391C01432ED1B44226D0002C0BD09A450DD05346594201231943081C1CBC90469946A246F0BD2A43F3D09A45F1D1A642EFDC1ADA50464C
:4060000041424841012341421943081CEBE74A46002AE1D058425841012241421143081CE1E7291C114302D1002EC2D0D4E702204042D8E7AF42D1D809D00020AF42D2D265
:40604000504641424841012340421843CBE7C445C4D80020C445F3D3C5E7C046FF070000F0B55F464D46444656468046F0B4061C0803000B84462C484C001F035D00C90FF9
:40608000640D8B4691463F0B6D0DDB0F844212D0854225D0002C14D161460E4370424641002D35D0002E21D058425841012143420B43181C0EE06146022031430AD1A542D9
:4060C0000ED0002D12D13A4310D15B46594201231943081C3CBC90469946A246AB46F0BD391C02201143F5D1002CD5D09B45ECD1AC42EADC05DBBC45E7D80FD00020BC45EE
:40610000E8D2584641424841414201200843E1E73A43C7D10020002EDCD1D6E7C845D4D80020C845EDD3D5E7FF070000F0B55F4656464D464446F0B4051C061C080387B0E3
:4061400099464F00030BCC0F92469B467F0D019467D06C4B9F4236D080205B4640031843C0006B0F1843684B83469C4600239846EE00674400934B4649461D03C90F5B00E7
:4061800052462D0B5B0D894600D16EE05D498B4264D080205C4940038C4600210543ED00500F0543D20063444846FF187B1C9A46009B604002900B430F2B00D9ACE05348D1
:4061C0009B00C3589F465B461D4300D082E00823009300239B46023300269846CBE7029B01934346022B59D1012400250026019B1C40444B00212D030A0D12052D0B15430D
:40620000434A1B0515401D436D00E4076D082543301C291C07B03CBC90469946A246AB46F0BD2B434ED05B46002B00D185E1584600F0E2FE021C2823291C9B1A161C58461C
:40624000D940083EB0400B1CB54003439B462E1C0023304F0093BF1A98468CE7514629432ED10025002202219EE75146294323D0002D00D154E1281C00F0BEFE031C282171
:406280005046C91A1A1CC8405146083A914095400A1C05431F480021C31A85E7032B00D1C2E1012B00D06DE14446019B00251C40E4B2002300269DE700250022012173E7B0
:4062C000032171E70423009300239B4601330026984650E70C230093093B98464BE7802500242D030026074B84E74B46AB46161C0193884675E7029BAB46161C019388466F
:406300006FE7C046FF07000001FCFFFFD0800100FFFF0F800DFCFFFF330C3604360C9C46331C140C1204120C53439846634653439946634663430193331C41466343090CD5
:406340004B445B18994505D9802040028146019949440191190C039141460904090C1B045B1804932B0C9846331C2D04290C4B43604600934346654658435E43009B4D4346
:406380001B0C9946AE194E448446B54203D980235B029946CC44350C2B1C0398634484460593009B36041B041B0CF3189C446046039058460504060C280C84465043351CEC
:4063C00081466046654344434846000C8346724314195C44A24203D98022520293465D44220CAD184A461204120C24044046A41862464A43714346436046009646467043DE
:406400008046100C84468844E044414505D9802149028C46009961440091019803998446614499429B415B4299460598434684461204120C1B049B1863449C46AB468342C3
:406440009B4140460A19CC44A2428941E344CC45B6415C46000C8046494276425B426418334398448C428941AB459B4149425B4219430D1C009B4544EE187602E50D2E4372
:40648000B346049B56021E43731E9E415B46D20D324366021643DB010AD50123334076081E435B46DB071E435B465B089B465746634BFB18002B5ADD720709D00F223240B6
:4064C000042A05D0321DB242B6417642B344161C5A46D20106D55A465A4B1A4080239346DB00FB18584A934234DD0124029B00251C400026554B7DE680205B4600030342AA
:4065000008D0054206D105432D032D0B4C46161C4E4B6FE65D4605432D032D0B4B4B69E6504600F069FD031C2033272B00DCA6E65546083885400022ACE6281C00F05CFDD2
:40654000021C2032272A00DC75E6083885400026AB467DE65A46F608520716435A4601245502029A5B052D0B5B0D144042E6384DED1B382D0ADD0124029B00251C400026DE
:40658000002337E6019B5746029391E71F2D25DC304B321C9C466744BE405B46BB40371CEA407E1EB74113433B431E1C5B46EB401D1C730709D00F233340042B05D0331DA8
:4065C000B342B6417642AD191E1C2B0220D50124029B00251C40002601230BE65A461E4BDB1BDA40131C202D1CD01C4A94465A466744BA40171C3E43721E96411E430723AB
:406600000025334007D00F2300253340042BD6D16B076D022D0B0124F6081E43029B1C400023E7E50027E6E780255B4601242D031D43019B2D0323401C1C2D0B034BD9E52C
:40664000FF030000FFFFFFFEFE070000FF07000002FCFFFF1E040000E2FBFFFF3E040000F0B54D4644465F465646F0B40E1C111C3203520A470F1743C5001A035800DB0F74
:406680009946520A4B0F83B01A43CB000193CF4B7400F60F640DB046400D984200D1E8E00123494659400B1C9E4200D1B1E0261A002E00DC1CE1002842D1131C01990B434E
:4066C00000D0E6E06B0700D18EE00F232B40042B00D189E02A1DAA42AD418023012641466D427F191B043B400E40151C002B00D183E0B64B01349C4200D116E13A1CB44BEB
:40670000ED081A405007640552020543120B640D002112030B0D1B056405120B1A436308AC4CF60714401C43640064083443281C211C03B03CBC90469946A246AB46F0BD0E
:40674000A24B9C42BED080231B041A43382E00DD03E11F2E00DD3FE12020831B9946131C49468B409C46019B6046F34003430198F2408840011C481E81410B43EB1A9D4243
:4067800080411D1CBA1A4042171A3B0200D4A8E07A02560A002E00D1CAE0301C00F02CFC031C083B1F2B00DDCBE02822291C121AD1409E400A1C9D4032439C4200DDC8E01D
:4067C0001C1B671C1F2F00DDEDE01F23291C1C1B131CA540A340F9406C1EA541FA4019430D43171C00246DE78023012642461B043B401640002B00D07BE7744BED08780726
:406800000543FA089C423BD012036405120B640D7EE7231A9A46002B00DCA5E0002844D06A48844200D14DE78020000402435346382B00DC1CE1019B1A43511E8A41D1B2DE
:4068400000224919A94280410D1CD219404217183B0246D55D4B01349C4200D169E101205B4A6B083A4028401843D5070543570828E7131C01990B4300D111E74B4613E782
:406880002B1C134351D080231B031A431203120B3EE7013E002E00D080E0691A8D429B41BA1A5B42D71A0D1C6FE7101C019B184300D107E701235B429C46E2445346002B8A
:4068C00000D002E1019BD2195919A9429B415B42D7180D1CBCE76346034300D128E1071C65466B0700D0F0E6012643461E4084E7002E00D081E0601C4005400D012800DC33
:4069000007E10199681A84466545B641B81A7642861B300200D4A1E08C464D1BAC458941D21B4942561A984634E700220025EFE6281C00F061FB2030031C083B1F2B00DCDC
:4069400033E7021C283A95402A1C00259C4200DC36E71F4FE41A1740B4E6019B1A43511E8A41D3B2002209E7002B00D001E1601C43055B0D012B00DCB0E0144B984200D194
:406980001EE1019BD2195919A9429B415B42D2184908D5070D435708041C93E60B4B9C4200D0D3E68EE6211C131C1F39CB40191C202F00D18EE03F231C1BA24015436A1EFE
:4069C000954100270D4300248BE7C046FF070000FFFF7FFFFFFF0F80331C101C203BD840202E79D040239B1B9A40131C019A1343591E8B4100220343C0E6002C53D0C74C54
:406A0000A04200D1B0E0802471428946240427434946382900DDCDE01F2900DD59E120243E1C611A8E408A46B04649462E1CCE405146B4468D4064464646494626436C1ED8
:406A4000A541CF4035430199D71B8C464D1BAC4592415242BF1A041C984696E663466546334300D096E60026002700240025C4E61F2B61DC2020C31A9B46131C59468B40C4
:406A800051469946019BCB409C464B46604603439C465B46019999406346481E814119435346DA40CDE63C1C2C435DD0F1438946002955D10199D21B8C464D1BAC4589410F
:406AC0004942571A041C98465FE69448844200D0ADE6F7E5002271E7002387E73B1C2B43002C00D0DAE0002B00D113E1131C01990B4300D1E6E54919A9429B41D2195B429C
:406B0000D7183B0200D421E1854B0D1C1F40041CD8E5381C2843002C40D1002800D083E0101C0199084303D0171C0D1C9846C9E500260027002560E65046131C2038C34023
:406B4000181C5346202B00D1C1E0402351465B1A9A40019911434A1E91410022014370E66E4CA04200D053E7171C019D041C9846A8E5002C28D13C1C2C4300D18AE0DB4317
:406B80009A46002B00D082E0019BD2199C4665449D42894149425718041C59E600285BD1101C0199084300D1A4E0171C0D1C98465A4C87E53D436F1EBD410027EDB242E784
:406BC000041C0027002518E6544CA04262D0534680245B429A46240427435346382B00DD8EE01F2B00DD9DE02024E31A9B463B1C59468B40514699462B1CCB409C464B4622
:406C0000644623439C465B469D4063466C1EA541CF401D43019BBF189C4665449D4292415242BF18041C13E6101C0199084300D148E5681A844685428041BE1A4042301AA1
:406C4000060200D447E68C464D1BAC458941D21B4942571A984635E5101C0199084334D080247807ED08FF0824032843274208D0D608264205D1C90852070A43101C371C1C
:406C80009846FF00420F1743C500244C1AE5234CA042A2D1171C019D041C13E5002B35D0131C01990B4310D080247807ED08FF08240328432742E4D0D3082342E1D1C908B3
:406CC00052070A43101C1F1CDBE7144CFAE400223FE74C463E1C203CE6404946341C202932D04026761AB7403D436F1EBD4100272543A8E680270026FF03084C00257CE5E9
:406D00003D436F1EBD410027EDB283E7171C019D024CD7E4171C019DD4E4C046FF070000FFFF7FFF54463B1C203CE3401C1C5346202B0DD0402351465B1A9F403D436F1E69
:406D4000BD410027254365E70027CDE70D1CC8E50027F3E738B5041E16D0C50F00D04442201C00F049F9174B1B1A0A2821DC021C211C153291400A1C0B21081AC4405B05EA
:406D80002403240B5B0D03E000250023002400220021101C24030A0D1205240B14430A4A1B0514401C436400ED0764082C43211C38BD0B3884405B052403240B5B0D0022A9
:406DC000E6E7C0461E040000FFFF0F8010B5041E10D000F011F9144A121A0A281ADC0B23211C1B1AD94015300B03520584401B0B520D01E00022002300211B03201C1C0B2A
:406E00000B0D1B052343094C1205234013435B00590810BD031C0B3B9C40520523031B0B520D0024E8E7C0461E040000FFFF0F804200120E511C38B5C9B243025D0AC40F65
:406E4000012915DDE02189008C466D071B0B62440021281C0D0D2D052B431C4D52052B40520813435B00E4075B082343191C38BD002A15D1002D1FD0281C00F0BDF80A28E0
:406E80001DDC0B232A1C1B1ADA40131C021C153295400F4A1B03121A52051B0B520DD7E7002D06D080221B0B120313436D07094ACEE7084A0023CBE700220023C8E7031C84
:406EC0000B3B9D402B1C0025E3E7C046FFFF0F8089030000FF07000070B50B034D00440F6D0D5B0A23436C1C6405C90FC200640D012C2ADD3B4C2C19FE2C1ADC002C35DDA2
:406F00008001451EA841DB000343520F13435A0704D00F221A40042A00D004338022D2041A4027D00134FF2C03D09B015B0AE4B201E0FF2400235B02E4055B0A23435B0091
:406F4000C9075B080B43181C70BD002D06D113430ED100245B025B0AE4B2ECE71A43E8D08020DB0080040343FF24D0E717340CDA05230024DB08FF2CECD1002B2DD0802261
:406F8000D20313435B025B0AD5E78024164824042343401B1F280DDC144CA4466544AB401C1C131CAB405D1EAB41C240234313430024ACE71E1C0E4C641BE640341C202830
:406FC0000DD00C4884466544AB401D1C2A43531E9A41131C2343002499E70023ABE70025F4E7C04680FCFFFF9E03000082FCFFFF7E030000A2FCFFFF1C2101231B0498420E
:4070000001D3000C10391B0A984201D3000A08391B09984201D30009043902A2105C40187047C04604030202010101010000000000000000014B18687047C04634100020D0
:407040000E4B70B500251E1C0D4CE41AA410A54204D0AB00F35898470135F8E711F05AF8084B00251E1C084CE41AA410A54204D0AB00F35898470135F8E770BD2081010004
:4070800020810100208101002881010030B50024944208D0035D651C0C5DA34201D0181B02E02C1CF4E7002030BD002310B5934203D0CC5CC4540133F9E710BD031C82187C
:4070C000934202D019700133FAE77047134A1088810703D08107890F401A001D11791030484381B25088820703D08207920F801A001D800040180A494030098980B2CA07E0
:4071000001D0503080B2890706D504495422091F09785143081880B270470000EE0C0020B010002010B501F0ABFE10BD10B500F04FFA10BD10B5074904460978022000293C
:4071400007D1204601F0ECFE002802D1204609F0ADFF10BD580E002070B504460120002C12D02368002B0FD0616800290CD0074D06222889208118462968FFF796FF696883
:40718000606809780170002070BD0000B0100020FFB585B0002768460E9D07734C481C460078002802D0082009B0F0BD10990F9801900095029105A807C800F0FBF800287F
:4071C000F2D16946264603AB84460873002C19D0002115E08A00B75A082F09D990198078002805D0083FB7521878401C187005E0002915D00027B75290198770491CC9B2DA
:40720000A942E7D360460028CED10F9800280AD0109901F0E9F90006000E04D00120C3E701208446EEE701F02BFE2948002101610C300599016021888180022D03D3A17992
