:400000000040002011000000550800005508000080B500AF00F022FC80B500AF304B12221A6001F047FE2F4B181C01F071FC012001F050FE302001F07BFC2B4B2B4A1A60D7
:400040002B4B8022D2051A602A4B2A4A126802210A431A60284B294A1A60294B284A126808218A431A60FA23DB00181C01F0ACFC244B181C01F0C2FD234B244A1A60244BBD
:40008000244A1A60244BE022D2001A60204B234A1A60234BA022D2001A601D4B214A1A60214B822212061A60204B8022D2021A601F4B42221A601F4B41221A601E4B402229
:4000C0001A601E4B0820191C01F0C8FC082001F03FFD074B8022D2051A60BD4680BDC04630001040001BB70004010B40060000800C020B4078002E407C002E402D3E00006F
:400100006CF02E40DC05000008030140007FBB000000014042FF00800403014041FF00800003014040FF008008010B4000010B401C0101401801014008010140251E00009C
:4001400080B582B000AF72B6374B00221A60FB1D00221A7023E0FB1D1A78131C5B009B185B00324A9B183B603B681A78597809020A43997809040A43DB781B061343191C88
:400180003B681A795B791B0213439BB2081C191C00F0E8FBFB1D1A78FB1D01321A70FB1D1B78012BD7D9224BEE2212061A60214BEE2212041A60204B992212041A601F4B08
:4001C000992212041A601E4A1D4B1B78DBB202210B43DBB213701B4A1A4B1B78DBB23C218B43DBB214210B43DBB21370144A144B1B78DBB216210B43DBB21370124BD82245
:4002000012041A60114B3C221A60114B902292021A60104B0C221A60FFF7FEFE00F0B2FBBD4602B080BDC0466CF02E40D83A0100000002400003024000500F4030500F4082
:4002400000700F4001700F400800044000030440080304401803044010B5064C2378002B07D1054B002B02D0044800E000BF0123237010BDD80F0020000000008C3A01007F
:4002800008B5084B002B03D00748084900E000BF07480368002B00D108BD064B002BFBD09847F9E7000000008C3A0100DC0F0020A80B00200000000098B500AF074BDC6B36
:4002C0009B6B012100225B185441044A9363D463012001F0B5FABD4698BDC046C821002080B500AF00F014F801F030F800F0F8F900F0D2F901F04EFA044B181C01F0ACFA21
:4003000001F004FE01F036FFBD4680BDB902000080B500AF0A4B181C00F0A0FB094B00221A70094B00221A70084B00221A70084B00221A70074B00221A70BD4680BDC0466F
:4003400059030000662100208521002084210020482100206021002080B584B000AF786039607B68282B0DD005D8012B0AD0052B00D1EAE0F0E0422B19D04C2B29D0412B79
:4003800007D0E9E0002000F003FC754B00221A70E2E0744A3B68111C1A1C0223081C111C1A1C02F080FD6E4B01221A70D4E06C4B00221A700023FB6007E06B4BFA689200F5
:4003C0000021D150FB680133FB60FB68042BF4D9C2E03B68BB60654B012252421A60BB689B89113B0C2B00D9B5E09A00604BD3181B689F46BB681A1D5E4B101C00211A1CD3
:4004000040230EF0CFFC0422BB685B681B78191C01231940544B9200D150564B1A785B781B021A4300231204120C1B0C1B041343181C0DF049FF87E0BB681A1D4D4B101C7C
:4004400000211A1C40230EF0ADFC0022BB685B681B78191C01231940434B9200D150454B1A785B781B021A4300231204120C1B0C1B041343181C0DF027FF65E0BB681A1D35
:400480003C4B101C00211A1C40230EF08BFC0322BB685B681B78191C01231940324B9200D150344B1A785B781B021A4300231204120C1B0C1B041343181C0DF005FF43E021
:4004C000BB681A1D2B4B101C00211A1C40230EF069FC0222BB685B681B78191C01231940214B9200D150234B1A785B781B021A4300231204120C1B0C1B041343181C0DF004
:40050000E3FE21E0BB681A1D1A4B101C00211A1C40230EF047FC0122BB685B681B78191C01231940104B9200D150124B1A785B781B021A4300231204120C1B0C1B04134368
:40054000181C0DF0C1FEC04605E03B681A780A4B1A70C04600E0C046BD4604B080BDC0466621002064210020F40F00205C210020A43A0100282200208421002080B588B01F
:4005800000AFF860B9607A601D4B1B78022B33D1BB689AB21423FB181A811423FB183A1D1A601423FB1804229A801423FA18154B101C00211A1C00230EF0F4FB1423FA1897
:4005C000104B101C191C00220EF0B6FB0E4BFA689200D358002B0FD00A4B1422B9181A785B781B021A4300231204120C1B0C1B041343181C0DF012FEBD4608B080BDC0467F
:400600002022002028220020F40F002080B586B000AF62B6FFF764FE00237B6100233B610023FB600023BB6000237B6000233B6002F07AFC164B1B78002B24D0154B1B789D
:40064000002B20D100F02CF8031CBB600422BB68101C1C211A1CFFF791FF00F07FF8031C7B6100227B69101C10211A1CFFF786FF00F026F8031C7B6001227B68101C1321BE
:400680001A1CFFF77BFF0A2001F094FAD0E7C046662100208421002080B500AFBD4680BD80B500AF002001F073FD031C0020191C01F090FD031C9BB2181CBD4680BDC04661
:4006C00080B500AF012001F063FD031C0120191C01F080FD031C9BB2181CBD4680BDC04680B500AF2A2000F07DF82A20002100F04FF82B20492100F04BF82C20022100F05F
:4007000047F82D20012100F043F82E20012100F03FF82A202B2100F03BF8BD4680BDC04680B500AF012000F05DF8031C181CBD4680BDC04680B500AF032000F053F8031C06
:40074000181CBD4680BDC04680B500AF052000F049F8031C181CBD4680BDC04680B584B000AFFFF7DDFF031CFB60FFF7E3FF031CBB60FFF7E9FF031C7B60FB681A04BB683A
:400780001B02D2187B68D318181CBD4604B080BD80B584B000AF021CFB1D1A70BB1D0A1C1A700C23FB1800221A800C23FB18FA1D12781A700C23FB18BA1D12785A700C23D5
:4007C000FB181D20191C0222002300F049FEC04600F06AFF021C02231340F9D0C046BD4604B080BD80B584B000AF021CFB1D1A700C23FB1800221A700C23FB18FA1D127895
:400800001A700823FB1800221A700C23FB181D20191C0122022300F023FEC04600F044FF021C02231340F9D00823FB181D20191C0122012300F0A2FEC04600F035FF021CD0
:4008400001231340F9D00823FB181B78181CBD4604B080BD80B500AFFEE7C04680B586B000AF224B7B61224B3B61204B7B6135E03B691B68FB603B695B68BB603B699B68FD
:400880003B6000237B600CE0FB681A68BB681A60BB680433BB60FB680433FB607B6804337B607A683B689A42EED13B69DB683B6000237B6008E0BB6800221A60BB68043331
:4008C000BB607B6804337B607A683B689A42F2D13B6910333B617B69013B7B617B69002BC6D102F0ABFAFFF791FEFEE701000000A43D010080B582B000AF154B144A12686D
:4009000001218A431A6000237B600FE07B68032B04D8104B7A689200D35800E00E4B0F4A796889008B507B6801337B607B682F2BECD9FFF705FC0A4B00221A60044B044A2A
:40094000126801210A431A60BD4602B080BDC04600001040000000005508000000000020C000002080B582B000AF786039607A683B68101C00211A1C02F09EFABD4602B0A1
:4009800080BDC04680B500AF0B4B03221A600B4B03221A600A4B802212061A60094B0C221A60094B0C221A60084B00221A60012000F00EF8BD4680BD30003040300031401E
:4009C00000003A4000033A4040033A40000E3F4080B584B000AF021CFB1D1A700B4B1B68FB60FB1D1B78002B05D0FB68802212061343FB6003E0FB685B005B08FB60034B84
:400A0000FA681A60BD4604B080BDC04680033A4080B500AF094B00221A70094B00221A70084B00221A7000F013F8074B00221A70064B00221A70BD4680BDC0462B22002057
:400A4000242200202A220020082200201022002080B500AF00F05EFCBD4680BDB0B594B004AF78603E23FB1800221A802823FA183E4B111C1A1C1423081C111C1A1C02F03D
:400A800012FA3B4B1B78002B04D1FFF7C1FF384B01221A707B68002B5CD0364B7A681A603E23FB181B88002B29D11023FB181C22BA185A601023FB182022BA181A601023C1
:400AC000FB1800221A812023FB181B221A802023FB181B225A802023FB1804221A711C23FB1800221A703E23FC181023FA180E23FB18101C191C02F0EDFA031C23803E232C
:400B0000FB181B88002B29D13E23FC181A481B49AE231A012823FD1805230093184B0193184B02932B1C02F031FA031C23803E23FB181B88002B11D1134B01221A703E23F3
:400B4000FC18124B181C1D2108220EF0DDF8031C238003E03E23FB1801221A803E23FB181B88181CBD4610B0B0BDC046E43A01000C1000200C220020C10E0000C8000020DE
:400B8000004601007902000020220020003B010090B585B000AF021CFB1D1A70FB1D1B78022B04D90E23FB1801221A804BE0294B1B78042B42D1284B1B78DBB21A1C0423D2
:400BC00013403BD1FB1D1B78002B0BD1234B1E221A82224B5B6820221A80204B5B6830225A8010E0FB1D1B78012B0CD11B4B96221A821A4B5B68C822D2001A80174B5B6833
:400C00008022D2015A80164BFA1D12781A700E23FC18124B181C0CF0A1F9031C23800E23FB181B88002B08D10B4B1B78DBB204221343DAB2084B1A7005E004E00E23FB1858
:400C40000422FF321A800E23FB181B88181CBD4605B090BD202200202B220020FC0B00202A22002080B584B000AF78600A1CFB1C1A700023BB60BB68002B20D07B689A79D8
:400C8000BB681A700F23FB1800221A7012E00F23FB181B780133BA68D3180F22BA18127879688A5C1A700F23FB181A780F23FB1801321A700F23FB181B78052BE7D9BD4609
:400CC00004B080BD80B582B000AF78607B681B789AB27B6801331B789BB21B029BB213439BB2181CBD4602B080BDC04690B585B000AF78600F23FB1800221A707B689B892A
:400D00000D22934237D17B681A1D7B680F217C18101C00211A1C40230EF044F8031C23700F23FB181B78002B1DD17B685B68181CFFF7C8FF031C1A1C022313409BB2002B47
:400D400008D0104B1B68822251007A68081C111C984708E00B4B1B680622FF32111C7A68081C111C9847084B1B78DBB201229343DAB2054B1A700F23FB181B78181CBD467C
:400D800005B090BD0C2200202B22002090B585B000AF78600F23FC187B68181CFFF7A6FF031C2370144B1B78DBB21A1C012313401FD10F23FB181B78002B16D00823FB1888
:400DC00012229A707B689A890823FB181A800823FB180F22BA181278DA707B680822BA181868111C0DF0DCF903E07B6818680DF06BFABD4605B090BD2B22002080B582B0E3
:400E000000AF7860BD4602B080BDC04680B500AF034B00225A70024B00221A70BD4680BD2822002080B582B000AF7860BD4602B080BDC04680B500AFBD4680BD80B584B0FF
:400E400000AF78600E23FB1800221A707B689B79002B1CD10F23FB1800221A7012E00F23FB181B787A68D35C002B04D00E23FB1801221A700BE00F23FB181A780F23FB1829
:400E800001321A700F23FB181B78052BE7D90E23FB181B78181CBD4604B080BD80B582B000AF021CBB1D1A80BD4602B080BDC04680B582B000AF7860BD4602B080BDC0462A
:400EC00080B588B000AF021C3960FB1D1A70BE4B1B78DBB201221343DAB2BB4B1A70FB1D1B78412B00D18DE123DC212B00D1EAE00DDC022B00D1BCE002DC012B3BD0E0E12A
:400F0000052B00D1BAE0062B00D1BCE0D9E1272B00D101E106DC242B00D1F3E0262B00D106E1CEE1282B00D1FEE02A2B00D1EEE0C7E14F2B00D1BDE10BDC432B00D18AE114
:400F400000DA85E14C2B00D1A2E14E2B00D1B3E1B7E1572B00D1B1E106DC502B00D1AFE1542B00D199E1ACE1712B00D126E1FA2B00D197E1A5E11023FB1807221A70102362
:400F8000FB1800225A701023FB18181C03F022FF1023FB1807221A701023FB1801225A701023FB18181C03F015FF884B1B68181CFFF744FF031E11D0844B1B68181C01F0BB
:400FC000B7FF824B1B68181C0021FFF74BFE7F4B1B68181C0121FFF745FE36E07C4B1B781A1C3F231A407B4B1B78191C3F230B409B011A43784B1B78191C1F230B401B03AF
:401000001A43764B1B78191C7F230B405B041343BB61BB69DAB2724B1A70BB691B0ADAB26F4B5A70BB691B0CDAB26D4B9A706C4B181C01F07DFF6A4B181C0021FFF712FEBB
:40104000674B181C0121FFF70DFE00200BF036FE0C23FB183F221A700C23FB1800225A700C23FB18181C0BF047FE5E4B04221A7027E13B68181CFFF7D5FE22E13B681A78CE
:40108000594B1A701DE13B687B617B691B78002B18D17B695B78002B0BD1544B0022DA80524B00229A80514B514A1A607B694F4A5A60454B1B78DBB201229343DAB2424B9E
:4010C0001A70FEE0FDE0404B1B78DBB21A1C2023134016D1474B1B78102B02D1454B0522DA70454B1A78434B101C191C0BF0F6FE354B1B78DBB201221343DAB2324B1A706D
:40110000DFE0DEE03B685A783C4B1A70D9E03B68181CFFF7CDFED4E03B68181CFFF7C8FE304B02221A70CCE02E4B04221A70C8E02C4B1B78022B40D0234B1B78DBB21A1C63
:401140000123134039D0204B1B78DBB21A1C042313400BD0234B03221A701B4B1B78DBB204229343DAB2184B1A7026E0164B1B78DBB21A1C082313400BD01A4B04221A7096
:40118000114B1B78DBB208229343DAB20E4B1A7013E0144B1B78032B0FD1124B04221A70174B1B78002B08D10120FFF7F1FC031E03D10C4B03221A7083E082E03B681B8841
:4011C000181CFFF76BFE7CE02B220020180C00207CF1FF0F7DF1FF0F7BF1FF0F78F1FF0F100C0020202200202422002010100020A80B0020C80C00202822002010220020A0
:401200002A2200203C4A3B68111C1A1C0223081C111C1A1C01F047FE384B00221A70364B1B781A1C131C5B009B189B009E2292009A18334BD3180133324A111C1A1C0C23D4
:40124000081C111C1A1C01F02EFEFFF7F3FD38E0FFF7DCFD35E03B685B88162B05D81E23FB183A6852881A8003E01E23FB1817221A803B681E22BA1811881A8800231204A7
:40128000120C1B0C1B041343181C0CF093FF18E03B68181CFFF77AFD13E03B68181CFFF7ADFD0EE0184B1B7801221343DAB2164B1A7006E0C04604E0C04602E0C04600E09A
:4012C000C046124B1B78DBB21A1C112313400FD00E4B1B78DBB201229343DAB20B4B1A700B4B1B68FA1D11783A68081C111C9847BD4608B080BDC0462822002024220020D8
:401300000046010014220020082200202B2200200C22002080B500AFBD4680BD80B500AF00F032F8BD4680BD80B500AF064B064A1268802109060A431A6000F019F800F042
:401340001FF8BD4680BDC0460000254080B500AF064B1B78002B04D1FFF7E0FF034B01221A70FFF7E1FFBD4680BDC0461810002080B500AF0A2000F0EBFBBD4680BDC04685
:4013800080B500AFBD4680BD80B500AF204B00221A60204B204A1A60204B214A1A60214B00221A60204B00221A60204B1C4A1A601F4B00221A600A2000F0DEFB0A200321DE
:4013C00000F072FB1B4B0A20191C00F047FB1A4B00221A60194B00221A60194B00221A60184B1422FF321A60174B00221A60174B00221A60164B10221A70164B00221A801E
:40140000154B00221A60154B00221A60BD4680BD0000254060002540C708008000032540070100800403254010032540000225400402254095220000C80E2540880E254068
:40144000480F2540080F2540C80F2540880F25402C2200203A220020402200203422002080B586B000AFF860B9607A603B6004237B61BB68002B20D0324B1B78DBB2102B01
:401480000CD10A2000F078FB2F4B1B680122134001D0082300E000237B610EE0294B1B78DBB2602B09D1294B1B889BB2082293439AB2264B1A8000237B617B69002B38D1BB
:4014C000204B28221A70224B00221A60214B00221A60214B7A681A60204BBA681A603B68DAB21F4B1A70FB685B00FF221340FB60164B1B889BB2022293439AB2134B1A808E
:40150000184B194A1A60194B40221A60184B40221A603B680122134005D000F0E7F8154BFA681A6005E0134BFA681A60124B02221A600A2000F00CFB7B69181CBD4606B0E7
:4015400080BDC0462C220020640025403A22002030220020342200203C2200204422002038220020000F254017030000800F2540880F2540400225406800254080B586B0B2
:4015800000AFF860B9607A603B6004237B61BB68002B20D0374B1B78DBB2102B0CD10A2000F0EAFA344B1B680122134001D0082300E000237B610EE02E4B1B78DBB2602B38
:4015C00009D12E4B1B889BB2082293439AB22B4B1A8000237B617B69002B43D1254B29221A70274B00221A60264B7A681A60264BBA681A603B68DAB2244B1A70FB685B0017
:40160000FF22134001221343FB601C4B1B889BB2012293439AB2194B1A801D4B1D4A1A60184B1B68072B03D81B4B04221A6009E01A4B1A4A1268802149000A431A60164B48
:4016400008221A603B680122134005D000F04EF8134BFA681A6005E0114BFA681A60114B02221A600A2000F073FA7B69181CBD4606B080BD2C220020640025403A22002009
:40168000402200204C2200204822002038220020000F254017030000C80F254060002540400225406800254080B582B000AF0A2000F062FA0B4B1B889BB27B600A4B1B787E
:4016C000DBB220221340DBB2002B03D07B68042213437B600A2000F03BFA7B68181CBD4602B080BD3A2200202C22002080B582B000AF01237B60084B1B682022134001D070
:40170000082300E000237A6813437B60034B7A681A60BD4602B080BD640025406800254080B500AF094B0A4A1A600A4B0C221A60012000F079F8084B181C00F04BF8064BA6
:40174000181C00F039F8BD4680BDC04600012040000001022401204060EA000090B583B000AFFC1D00F0DDF8031C2370084B084A126801210A431A60FB1D1B78181C00F00D
:40178000D4F80120182100F033F8BD4603B090BD0000204080B500AF064B1B78002B04D1FFF7BEFF034B01221A70FFF7D7FFBD4680BDC0462010002080B582B000AF7860BF
:4017C000034B7A681204120C1A60BD4602B080BD0801204080B582B000AF7860034B7A681204120C1A60BD4602B080BD1401204090B585B000AF786039600F23FC1800F0AD
:4018000090F8031C2370074B3A68796891400A1C1A600F23FB181B78181C00F086F8BD4605B090BD0800204080B582B000AF7860024B7A681A60BD4602B080BD380120401F
:4018400080B582B000AF7860024B7A681A60BD4602B080BD3001204080B582B000AF786000F04CF87B68181C00F008F8032000F013F800F039F8BD4602B080BD80B582B08D
:4018800000AF7860034B84217A685A50BD4602B080BDC0460000002090B585B000AF021CFB1D1A700E23FB600B23FC1800F039F8031C23700A4B0A4A12680A491140FA1DA2
:4018C0001078FA689040021C0A431A600B23FB181B78181C00F029F8BD4605B090BDC04610E400E0FF3FFFFF80B500AF024B802292021A60BD4680BD00E100E080B500AF4F
:40190000024B802292021A60BD4680BD80E100E00230800803D00138FDD1C046C046C0467047EFF3108072B6704780F31088704790B58BB000AF78602723FC18FFF7F1FF6E
:40194000031C2370184B1A680C23FB181A60174B1A680C23FB185A607B68033B144AD35C1A1C0C23FB189A60124B1A680C23FB18DA601C23FB18104A1A600C23FA181C2313
:40198000FB185A600D4B1C22BA181A600C4B0D4A1A600A4B1B682723FB181B78181CFFF7C4FFBD460BB090BD08010B4000010B40443D010030001040B6EA000008001040F6
:4019C000040010401700008080B584B000AF78600023FB60154B154A126801210A431A60134B144A1A60144B134A1268802109020A431A607B68002B12D01023FB600CE023
:401A0000012000F0FBF800F019F8031E02D00023FB6005E07B68013B7B607B68002BEFD1FB68181CBD4604B080BDC04660F02E4078002E400220000010002E4080B582B047
:401A400000AF054B1B68012213407B607B68181CBD4602B080BDC0460C002E4080B584B000AF021C3960FB1D1A7080239B05FB60FB1D1B781F2B02D9002000F091F8FB1D7A
:401A80001B7810339B00FA68D3181B68BB60FB1D1B7810339B00FA68D3183A681A60BB68181CBD4604B080BD90B587B000AF021CFB1D1A70BB1D0A1C1A70BB1D1B78032B81
:401AC00002D9002000F06CF8FB1D1B781F2B02D9002000F065F8FB1D1B7803221340DB0006337B611323FC18FFF71BFF031C2370FB1D1B789B08DBB29B00144A94466344E6
:401B00001B68FB607B6903229A40131CDA43FB681340FB60BB1D1A787B699A40131CFA681343FB60FB1D1B789B08DBB29B00074A94466344FA681A601323FB181B78181CE9
:401B4000FFF7F3FEBD4607B090BDC04600E400E080B582B000AF021CFB1D1A70054BFA1D12781F210A40012191400A1C1A60BD4602B080BD00E100E080B582B000AF021CE2
:401B8000FB1D1A70054BFA1D12781F210A40012191400A1C1A60BD4602B080BD80E100E080B582B000AF021CFB1D1A7001BEBD4602B080BD80B582B000AF786009E00C4B8D
:401BC0001B68181CFFF7A4FE7B680A4A944663447B607A6880231B029A42F0D8064B1B687A685343181CFFF793FEBD4602B080BDDC0C00200080FFFFD40C002080B582B0D7
:401C000000AF021CBB1D1A80BB1D1B88044A12785343181CFFF77CFEBD4602B080BDC046D80C002080B500AF0E4B0E4A126801218A431A600B4B0B4A126802218A431A60D5
:401C4000094B094A126830218A4310210A431A60054B054A126807218A4301210A431A60BD4680BD00F02E4000FF2E4080B500AF0E4B0E4A126802218A431A600C4B0C4A05
:401C8000126807218A4302210A431A60084B084A126830218A4320210A431A60034B034A126801210A431A60BD4680BD00F02E4000FF2E4080B500AFFFF7B4FF044B044A53
:401CC0001268802109060A431A60BD4680BDC04600F02E4080B584B000AF78600C4B1B6801221340FB607B68002B02D0012B03D005E0FFF797FF06E0FFF7B8FF03E00020CE
:401D0000FFF74EFFC046FB68181CBD4604B080BD00F02E4090B583B000AFFC1DFFF701FE031C2370074B074A1268C02109020A431A60FB1D1B78181CFFF7F7FDBD4603B03B
:401D400090BDC04600010B4080B500AF054B1A68C0231B02134001D0012300E00023181CBD4680BD00010B4090B583B000AFFC1DFFF7D7FD031C23700C4B0C4A12680C49CB
:401D80000A408021C9010A431A60084B074A126807490A40802109020A431A60FB1D1B78181CFFF7C2FDBD4603B090BD00010B40FF3FFFFF90B585B000AF78600B23FC181A
:401DC000FFF7AFFD031C2370FFF7BEFF031E04D00123FB60FFF7C8FF01E00023FB607B680D4A13407B600D4B0C4A12680C4911407A680A431A60094B1B68FB68012B01D135
:401E0000FFF788FF0B23FB181B78181CFFF78DFDBD4605B090BDC0460404040010020B40FBFBFBFF80B500AF334B1B68042213401FD0324B1B680422134017D0304B1B688E
:401E400004221340DA432D4B1B681A402B4B1A602B4B1B68042293431A1C294B1A60294B1B68002B02D0274B1B6898470420FFF7A1FF214B1A688023DB00134022D01F4BD1
:401E80001A688023DB00134017D01D4B1A688023DB001340DA43194B1B681A40174B1A60174B1B68184A1A40154B1A60154B5B68002B02D0134B5B6898478023DB00181CA6
:401EC000FFF778FF0C4B1A688023DB02134011D00A4B1A688023DB02134006D0094B9B68002B02D0074B9B6898478023DB02181CFFF760FFBD4680BD10020B40E40C00202A
:401F00002C10002030100020FFFBFFFF80B500AF064B1B78002B04D100F00AF8034B01221A7000F00BF9BD4680BDC0464C10002080B584B000AF0F200321FFF7B5FD624BC2
:401F40000F20191CFFF78AFD604B03221A60604B1B68002B01DA5F4900E05F495F4B5F4A12680A431A605E4B5E4A1A605E4B5F4A1A605F4B00221A605E4B5F4A1A605F4BEB
:401F80005D4A1A605E4B5E4A1268802149020A431A605C4B5B4A1268802149020A431A60594B00221A60594B00221A60584B01221A60584B1B687B607B68574A13407B6096
:401FC0007B688022920513437B607B68012293437B60504B7A681A600023FB606EE04F4BFA689200D258DC239B0113407B604C4AFB68D3181B781A1C7B6813437B60FB6875
:402000009B00484A944663447A681A60434BFA689200D3580122134009D03B4B3A4A1268F96801208840011C89B20A431A603B4BFA689200D3580222134009D0334B334ABD
:402040001268F96801208840011C89B20A431A60324BFA689200D25880239B00134003D080235B00BB6002E080235B01BB602B4BFA689200D25880235B00134005D12A4B39
:40208000FA6852000021D15204E0274BFA6852000021D152BB68254A5343254A94466344181C244900F0D8FD031C9BB219B2224BFA689200D150FB680133FB60FB68012B22
:4020C0008DD9BD4604B080BD7922000020003A4080033A40702010107020001000003A4004003A408C00008018003A400000FF071C003A4010003A400400040014003A40B2
:4021000000033A4040033A4028023A4038023A4018023A4030003A40FFFFFFDF743D01007C3D010080003A405822002010270000E40C0000C81900005022002080B500AF75
:402140000A4B1B68002B0EDBC046094B1B68002BFBDB064B054A1268802109060A431A600A20FFF74BFDBD4680BDC04600003A4008023A4080B500AF044B044A12688021BC
:4021800049020A431A60BD4680BDC04604003A4080B584B000AF78607B68012B02D90020FFF7FEFC7B68012B09D87B689B00084A944663441B681B041B0CFB6001E00023F6
:4021C000FB60FB689BB21BB2181CBD4604B080BD80013A4080B584B000AF78600A1CBB1C1A807B68012B02D90020FFF7D9FC1F4B7A685200D35A99B2BB1C1A888BB2D31ACF
:402200009AB2BB1C1A80BB1C00229B5E184A5A43BB1C00215B5E002B08DD164B79688900CB58002B00DA01335B1008E0114B79688900CB58002B00DA01335B105B42D118A2
:402240000C4B7A689200D358081C191C00F004FD031C1A1C0E23FB181A800E23FB181B881BB2181CBD4604B080BDC04658220020102700005022002080B582B000AF044B41
:402280001B687B60024B7A681A60BD4602B080BD10023A4080B582B000AF00233B60C04B1B68002B02D0BE4B1B689847BD4B1B680122134002D0BC4B00221A60BB4B1B78C0
:4022C000DBB220221340DBB2002B38D0B84B1A6880235B0013400AD0B64B1B889BB2C022920013439AB2B34B1A8001233B60B04B1B68012213400AD0AE4B1B889BB2902285
:40230000920013439AB2AB4B1A8001233B603B68002B14D0A54B1B78DBB201221340DBB2002B01D0012300E00223A24A128892B213439AB29F4B1A809C4B00221A709B4BC7
:402340001B78DBB220221340DBB2002B00D1A4E1974B1B681022134018D0974B10221A60924B1B78DBB201221340DBB2002B01D0012300E002238F4A128892B213439AB2BC
:402380008C4B1A80894B10221A70AAE1874B1B78DBB208221340DBB2002B29D0844B1B68022213400ED0844B02221A60814B1B889BB28822920013439AB27E4B1A8001233C
:4023C0003B6015E0794B1B78DBB201221340DBB2002B03D0754B25221A7009E0734B24221A70764B1B68002B02D0754B10221A606E4B1B78DBB204221340DBB2002B00D1D8
:4024000013E16A4B1B78DBB201221340DBB2002B5BD06C4B1B680822134033D06A4B1A686A4B1B681F211940694B1B68CB18D31A7B607B68082B02D908237B600CE07B6810
:40244000002B09D1634B634A126863490A401A6008237B6001233B6010E0604B1A685C4B1B68D2185E4B1B68DBB21370584B1B685A1C574B1A607B68013B7B607B68002B20
:40248000EBD11EE04F4B1B680422134019D0534B1A684F4B1B68D218514B1B68DBB213704B4B1B685A1C4A4B1A60494B1A68464B1B689A4203D24B4B04221A6001E00123D9
:4024C0003B60494B494A1A60AFE0394B1B680222134032D0384B02221A60454B1B681F221A40434B196880231B020B4001D0012300E00023D2183F4B1B689A1A3D4B1A6003
:402500003C4B1A683C4B1A602A4B1B889BB28422920013439AB2274B1A80384B374A1268802149020A431A60344B344A126834490A401A6001233B6077E0324B1B68102215
:40254000134067D022E02B4B1A681C4B1B689A421BD21A4B1B685A1E264B1B689A4205D1294B40221A60164B40221A60274A284B1968204B1B68CB181B78DBB213601D4B60
:402580001B685A1C1B4B1A6000E005E0184B1B681F221340082BD6D11B4B10221A6044E01C1000208C0E2540880E25402C2200200C0F25403A220020000F25403C22002051
:4025C000880F2540CC0F25404C220020080325404022002060002540FFFEFFFF482200204003254068002540C00F2540ED0F0000080225403022002034220020040225406E
:40260000FFFFFEFF8C0F2540800F25404002254044220020344B1B684022134005D0334B1A68334B1A6001233B603B68002B58D0304B304A126830490A401A602F4B0022FD
:402640001A602F4B00221A602E4B1B78DBB202221340DBB2002B15D02B4B1B78DBB201221340DBB2002B01D0092300E00A23274A128892B213439AB2244B1A80224B602266
:402680001A702EE0224B234A126820210A4001D0182200E010221A6023E01B4B1B78DBB210221340DBB2002B1BD11B4B1A4A1268520052081A60144B10221A700D4B0D4A26
:4026C000126816490A401A600A4B0A4A126814490A401A60104B104A1268802109060A431A60BD4602B080BD8C0F2540302200203422002060002540FFFEFFFFC80F25407D
:40270000880F2540382200202C2200203A220020680025406400254000002540FF5FFFFFFFFCFFFF80B582B000AF78600A1CBB1C1A80BB1C1A887B681A60BD4602B080BD9C
:4027400080B582B000AF78600A1CBB1C1A80BB1C1A887B681A60BD4602B080BD80B584B000AF494B1B78DBB21B02484A1278D2B21343FB60464B1B78DBB21B02454A1278EB
:40278000D2B21343BB60BB68434A934207D1FB68072B04D1414BBB600423FB6009E0BA68D4231B019A4204D1FB68042B01D13B4BBB603B4BBA681A603A4BFA681A603A4B58
:4027C0001B78DBB21B02394A1278D2B21343FB60FA6880239B019A4202D0FB68002B01D1334BFB60334BFA681A60334B1B78DBB21B02324A1278D2B21343FB60FB68304AA5
:40280000934206D0FB682F4A934202D0FB68052B01D12D4BFB602D4BFA681A602C4B1B681B097B602B4B1B68AA2B29D17B68012B26D9214B1B78DBB20E2B21D1264B1B7854
:40284000DBB29BB21B0299B2244B1B78DBB29AB2BB1C0A431A80224BBA1C12881A60214B1B78DBB29BB21B0299B21F4B1B78DBB29AB23B1C0A431A801C4B3A1C12881A6000
:40288000BD4604B080BDC046D9F0FF0FD8F0FF0FDFF0FF0FDEF0FF0F580B0000580D00006C002E4074002E40DBF0FF0FDAF0FF0F0220000078002E40DDF0FF0FDCF0FF0FC6
:4028C0000F0F000005050000050F000080002E40EC0F00F0E00F00F06DF2FF0F6CF2FF0F84002E406FF2FF0F6EF2FF0F94002E4080B582B000AF021CBB1D1A80BB1D1B8819
:40290000181CFFF77BF9BD4602B080BD80B500AF00F0DEF8BD4680BD80B500AF00F0E2F8BD4680BD80B500AF00F0DCF8044B181C00F09CF8032000F0A5F8BD4680BDC0468A
:402940002D2B000080B500AF024B181C00F07CF8BD4680BD2D2B000080B500AF0223FF33181CBD4680BDC04680B582B000AF78602B23181CBD4602B080BDC04680B582B01A
:4029800000AF78602B23181CBD4602B080BDC04680B582B000AF78602B23181CBD4602B080BDC04680B582B000AF78602B23181CBD4602B080BDC04680B582B000AF786058
:4029C0002B23181CBD4602B080BDC04680B582B000AF78602B23181CBD4602B080BDC04680B582B000AF78602B23181CBD4602B080BDC04680B582B000AF78602B23181C1D
:402A0000BD4602B080BDC04680B500AF2B23181CBD4680BD80B582B000AF021CFB1D1A702B23181CBD4602B080BDC04680B582B000AF786039602B23181CBD4602B080BDAD
:402A400080B500AFBD4680BD80B582B000AF786000F048F87B68181C00F008F8032000F011F800F035F8BD4602B080BD80B582B000AF7860024B7A681A67BD4602B080BD52
:402A80000000002090B585B000AF021CFB1D1A700623FB600B23FC18FEF743FF031C23700A4B0A4A1268C0218A43111CFA1D1078FA689040021C0A431A600B23FB181B78D6
:402AC000181CFEF732FFBD4605B090BD0CE400E080B500AF024B802252011A60BD4680BD00E100E080B500AF024B802252011A60BD4680BD80E100E090B583B000AFFC1DA5
:402B0000FEF70FFF031C2370074B074A126804218A431A6030BFFB1D1B78181CFEF705FFBD4603B090BDC04610ED00E080B500AF10F098FFBD4680BD002243088B4274D36E
:402B400003098B425FD3030A8B4244D3030B8B4228D3030C8B420DD3FF22090212BA030C8B4202D31212090265D0030B8B4219D300E0090AC30B8B4201D3CB03C01A524156
:402B8000830B8B4201D38B03C01A5241430B8B4201D34B03C01A5241030B8B4201D30B03C01A5241C30A8B4201D3CB02C01A5241830A8B4201D38B02C01A5241430A8B422D
:402BC00001D34B02C01A5241030A8B4201D30B02C01A5241CDD2C3098B4201D3CB01C01A524183098B4201D38B01C01A524143098B4201D34B01C01A524103098B4201D361
:402C00000B01C01A5241C3088B4201D3CB00C01A524183088B4201D38B00C01A524143088B4201D34B00C01A5241411A00D20146524110467047FFE701B5002000F0FCF8FB
:402C400002BDC0460029F7D003B5FFF775FF0EBC4243891A1847C04603460B437FD4002243088B4274D303098B425FD3030A8B4244D3030B8B4228D3030C8B420DD3FF220C
:402C8000090212BA030C8B4202D31212090265D0030B8B4219D300E0090AC30B8B4201D3CB03C01A5241830B8B4201D38B03C01A5241430B8B4201D34B03C01A5241030BE2
:402CC0008B4201D30B03C01A5241C30A8B4201D3CB02C01A5241830A8B4201D38B02C01A5241430A8B4201D34B02C01A5241030A8B4201D30B02C01A5241CDD2C3098B42E0
:402D000001D3CB01C01A524183098B4201D38B01C01A524143098B4201D34B01C01A524103098B4201D30B01C01A5241C3088B4201D3CB00C01A524183088B4201D38B0039
:402D4000C01A524143088B4201D34B00C01A5241411A00D201465241104670475DE0CA0F00D04942031000D34042534000229C4603098B422DD3030A8B4212D3FC2289017E
:402D800012BA030A8B420CD3890192118B4208D3890192118B4204D389013AD0921100E08909C3098B4201D3CB01C01A524183098B4201D38B01C01A524143098B4201D386
:402DC0004B01C01A524103098B4201D30B01C01A5241C3088B4201D3CB00C01A524183088B4201D38B00C01A5241D9D243088B4201D34B00C01A5241411A00D201466346C0
:402E000052415B10104601D34042002B00D54942704763465B1000D3404201B5002000F00BF802BD0029F8D003B5FFF715FF0EBC4243891A1847C0467047C0460E4B70B570
:402E400000251E1C0D4CE41AA410A54204D0AB00F35898470135F8E710F092FF084B00251E1C084CE41AA410A54204D0AB00F35898470135F8E770BD8C3D01008C3D010094
:402E80008C3D0100943D010030B50024944208D0035D651C0C5DA34201D0181B02E02C1CF4E7002030BD002310B5934203D0CC5CC4540133F9E710BD031C8218934202D069
:402EC00019700133FAE77047134A1088810703D08107890F401A001D11791030484381B25088820703D08207920F801A001D800040180A494030098980B2CA0701D0503078
:402F000080B2890706D504495422091F09785143081880B270470000EE0C00205010002010B501F0ABFE10BD10B500F04FFA10BD10B50749044609780220002907D12046F1
:402F400001F0ECFE002802D1204609F0ADFF10BD580E002070B504460120002C12D02368002B0FD0616800290CD0074D06222889208118462968FFF796FF696860680978BA
:402F80000170002070BD000050100020FFB585B0002768460E9D07734C481C460078002802D0082009B0F0BD10990F9801900095029105A807C800F0FBF80028F2D16946F8
:402FC000264603AB84460873002C19D0002115E08A00B75A082F09D990198078002805D0083FB7521878401C187005E0002915D00027B75290198770491CC9B2A942E7D3E9
:4030000060460028CED10F9800280AD0109901F0E9F90006000E04D00120C3E701208446EEE701F02BFE2948002101610C300599016021888180022D03D3A1798171A17A6C
:40304000C17100211EE0481C19E082008B00A75AE65ABE46BE4211D26F463E80B4461E190296B678BE7001967646E6521719029EBB78B3706646A652019EBE70401CA8426D
:40308000E3D3491CA942DED3114800906846037B22460799069800F013F9002882D168460A4C007B60700A4801F018FE0028B4D1204607490C3006F021FF0028ADD106F02E
:4030C0003BFF0028A9D1012121706BE7E80C002050100020F8B5054633480E460078002802D002242046F8BD002E5BD000242F49002D16D02A89D0070DD02868002808D0E2
:4031000003881B3BE12B04D24088FB2801D81B2801D2012409E0900707D56868002804D1F7E70020088108604860002CDAD11F482F8907811C481B21801D018041800421EB
:40314000017119490020891C0870F80705D016480622801D2968FFF7A6FE1449B80703D56A681148127882700F480D46801D0860001F486001F0F8FD0B48801D01F0E6FD61
:4031800028890CF0BDFE28890DF024F803461033FFF79AFE1F21C018890140180249308088809FE701249DE7E80C002050100020FFB58446384F1C460020BB883F78054637
:4031C00002460646002F11D100290ED0029999420BD36146002908D0002C06D00A99002906D02E4B0B99994202D2012004B0F0BD002144E0AB001F19BF78002F3BD0E35A5F
:40320000002B38D07B43591889B22B0000F04AF8050410161C253100A7782388BC46FF27233BEB37BB4222D26346032B1FD322E0A388002B1FD0302B19D31CE02389002B66
:4032400019D0282B13D316E0A289002A13D01346134F233BBB420AD20DE0268A002A0AD033460F4F233BBB4201D2964203D901200EE0002001E000280AD16D1CEDB2099BD3
:403280009D42B7D31C2463435B1802998B42ACD89642AAD8AAE70000E80C002079020000BAFF000030B47446641E2578641CAB4200D21D46635D5B00E31830BC184700006D
:4032C000FFB583B0002469460C801F4606468C80002806D00598002803D004983043800701D0012467E0002FFBD03449049809888842F6D3FFF726FBFFF70EFB00F010FC19
:40330000002856D100F06CFD002852D12C49084601F09CF805042D0C4BD12A480499066081800021C18007810C98007AC00704D0684601F0BCFC040007D10C98007A800703
:4033400003D501A801F0BCFC0446BF1DFEB2002C21D13146059800F05DF804001BD10CF047FF0406240E16D16A461088928808368518144AF1B29088D288AEB293199842EB
:4033800007D3401B801A80B201F050FB050007D000E0FF25012400F05BFA002D04D008E0F8B200F01BF9F6E700F07EFA06490120087000F0C7FB204607B0F0BDEC0C00202E
:4033C000013500005C100020FC0C002010B503480078012801D101F0CBF910BDFC0C002070B5084B0446DA889E8800205518B54206D81D68AA182260DA885118D98070BDF0
:40340000032070BD5C10002001480089704700005C100020F0B587B007460D4600208900009006916846FFF7DBFF844600285DD1304800990160002117E02E4B88001A68A4
:403440000629115406D22C4C0419667882185670628805E0C419203CA67A8218567022891B68C018491C4280C9B2A942E5D300242DE0601CC2B2059025E01E4FA3003968CE
:403480009600581840887118039604904E88B04217D938466F46FE80B6464F786E4677710297049F4F800168039F5E18767879184E700168764659184E800068029F18185A
:4034C0004770521CD2B2AA42D7D30598C4B2AC42CFD36046002809D168460699FFF780FF8446002802D1054900980860604607B0F0BD0000000D0020B83D0100040D00200F
:403500007047000010B5002809D005494A68002A05D0011F08788000105801F035FA10BD000D002010B50446FFF76EFFC0B2801DA0420CD307484068002808D0A1004058FB
:4035400001F094F9002801D00470001D10BD002010BD0000000D0020F8B516460D460446FFF752FFC0B2801DA04203D20020C0430090F8BDB2B2E9B2684601F09DF9009974
:40358000481C03D0024AA000526811500098F8BD000D0020F8B50746FFF736FF801DC6B20A49002005460C680DE06178002907D06188B94202D32078FFF7B4FF002804D12A
:4035C000241D6D1CEDB2B542EFD3F8BD000D002010B5002801D0FFF795FF10BD70B506460948002504680BE06178002905D062882078121D0023FFF7AFFF241D6D1CEDB2BC
:40360000B542F1D370BD0000000D0020FFB581B00A9C16002BD000F0F1F80546042826D0214F002C0BD02046FFF7B4FF2901C919486000281BD022460499FFF734FC1A49B8
:4036400028010E5046187481019805707D20029CC000444300F0C0F8009004280AD000F055FAA0420ED800F051FA201A06E0FF2005B0F0BD204600F0ADFA0020B0813572CA
:403680000020F5E700F042FA074600F0B9FA381B87B23846012100F0EFF800980101024808188781E6E7000068100020F8B5060117483418217A042903D0A089002802D061
:4036C00018E00020F8BD00F021FA054600F098FA00F0A2F804280DD001010D480F18B88941198DB2002100F0C7F80020B881284600F070FA6068064D002801D0FFF768FFD8
:40370000042020720020A8516081A081D9E7000068100020FEB500266A46304601232549050169180D7A042D02D0898900291BD000211154401CC0B20428F0D30024684683
:40374000005D002830D01B482101081841894768056802910021016041600422418102728181002E02D015E01354E3E700F054F804280ED001010F4808180190868900217F
:40378000304600F079F8019800218181304600F021FA0126002D07D038460299A847002F02D03846FFF714FF641CE4B2042CC6D3FEBD0000681000200EB5002005216A464F
:4037C0000090118150810348694600680DF085FB0EBD0000080D0020074A0020010189180B7A042B02D08989002903D0401CC0B20428F3D3704700006810002005490020D2
:4038000002015218127A042A03D0401CC0B20428F6D370476810002030B50A4B04200A4C00210A011219157A042D06D09289002A03D09A4201D808461346491CC9B204295A
:40384000EFD330BDFFFF0000681000207047000030B50020074C05460423020111190B72A5504D60401C4D81C0B28D810428F4D330BD00006810002030B5094C00231A019C
:403880001219157A042D04D09589002906D02D1895815B1CDBB2042BF1D330BD2D1AF7E768100020002070471CB5002469460C70142001902346054A05480DF013FB044818
:4038C0000068401C00D1FF2420461CBD25390000080D00203EB5124A0146FF2000230124126800290DD0012914D0042908D104206946009308814B8110460DF0EEFA80B285
:403900003EBD6846009304814381694610460DF0DFFAF4E768460093048143816946EBE7080D002070B545890468416800890300FFF7B8FC08280509091E222826280020B1
:4039400005F0EEF91EE0022908D0C8B22A4621460BF086FC2046FFF73BFE13E002202A4621460BF07DFC2946204600F00DF809E000200CF0A1FF05E02046FFF7CBFE01E04D
:40398000FFF75EF8002070BD014B0022DB6818470C0D002070B5448905680089022803D0032809D0FF2070BD2246094C0023A46829460120A04708E0FFF7B2FA241DA2B26E
:4039C00000232946022006F04AF9002070BD00000C0D0020704700000248002141600180418070470C0D002070B50C46002186B016460391012802D0022859D116E003A9B0
:403A0000012006F08CF901281BD1039D324621462846FFF748FA0095287801900220694608814E816846FFF7B5FF41E0214D002B686809D0049004A9022006F070F901281B
:403A40001DD0022006B070BD002812D0298840182146FFF728FA28880024801980B228806988091D884206D12C801348FFF792FF03E00320E6E788421AD96C6018E0049845
:403A80006860E278A378110219430B4A698000231060E3565360032313815181A1788170E178C1706178417021780170042028800020C7E70C0D0020A81000203EB51546F0
:403AC0000C46022803D004280CD000203EBD0091019002206946088107484A8100680DF0FCF907E00BF0BCFB044B0022DB6829462046984701203EBD080D00200C0D0020D9
:403B0000014AD160906070470C0D0020034801688068081A0A21484300097047B410002010B5FEF7FFFE482204490548FFF7BBF903490120C870002010BD0000D43D010008
:403B4000B814002010B5FEF7E1FE10BD70B5134C2368002B08D0207B1149C20705D04008400020738868A08070BD88680B4AA18880B29268814203D90A4D691A091802E0E0
:403B8000814202D2411A5118A160A080A0689842EAD30DF0BFF900F013F870BDB4100020C0102E40FFFF000010B508461946FFF7A7FF10BD704710B5FFF780FF10BD000054
:403BC00003480021016041608160C16070470000B4100020024610B5FF20002A0CD0FFF7EFFF064C0321207B0843207310010A21FFF728F82060002010BD0000B410002012
:403C000000B504480A21806848430209FFF7D8FF104600BDB41000200248007B8007C00F70470000B410002010B544490868002802DA434B01221A70022290430860414877
:403C400000693E49C00B4031096A08425ED0012000F086FA3B483C497C30FEF771FD37480E216C30FEF76CFD364820218430FEF767FD344814219C30FEF762FD3148FF21A7
:403C8000C131A430FEF75CFD2E48FF212F31B030FEF756FD2B482D49BC30FEF751FD29482B49AC30FEF74CFD29492648491CB430FEF746FD23482749B830FEF741FD2148FB
:403CC0002549CC30FEF73CFD1E4824490830FEF737FD1C482249A830FEF732FD194821498830FEF72DFD17481F498C30FEF728FD14481921C9029030FEF722FDFEF72EFD99
:403D0000FEF72AFEC0B2022802D00FE0FF2010BD16491748FEF714FD15481649001DFEF70FFD134800210830FEF70AFD54200449C043891C0870002010BD000000F02E40A3
:403D40001C0D002000002E4055650000320300002F3F00003102000010520000EC160000FA12000031D000003AE300009956000080012E40F80F000070B50646581C80B272
:403D800045086D00002408E0304600F0C1F81055000A1119A41C4870A4B2AC42F4D3D80705D0D0182038D15CC47FD454C17770BD30B50A4C002100195B1E07E054186478F4
:403DC0002502545C2C430480891C89B29942F5DB994201D1515C018030BD000000102E4010B5FF2000F0BCF90F49FF2048700E481021801D41800121417001700A490020D4
:403E0000C91C4870FFF710FF04000AD100F008F907210648FEF786FC044807211830FEF781FC204610BD00001C0D0020CC112E4070B5002405465B1E0AE0284600F068F879
:403E4000010A161971702D1D1055A41CADB2A4B29C42F2DB9C4203D1284600F059F8105570BD000070B500210A4D5B1E0AE0541864782602545C344346193480001D891CF9
:403E800080B289B29942F2DB994202D1515C4019018070BD00102E40F0B50599091FCFB200217E1E0BE0541864782502545C2C43164D45192C80001D891C80B289B2B1425C
:403EC000F1DBFC0712D01C78515C24020F4A0C4381180C809C785D78001D210280B2294384182180001D80B2D9780CE059781A7809021143054A84182180001DD9789B787E
:403F0000090280B2194380180180F0BD00102E40014940180088704700102E4010B50B490020487000F07CF8002000F03FF9002000F02CF907210648FEF7F4FB04480721A5
:403F40001830FEF7EFFB002010BD00001F0D0020CC112E4010B50B46062812D006DC01280CD0032801D1FFF7D9FF10BD0A28FCD00B28FAD105480078107010BDFFF730FFBE
:403F800010BD1146184600F02DF910BD220D0020F8B5204DAC6A0127A0071F4E002816DA307806280ED1286A384328621B480069F903084381B219481030FEF7C1FB0420C1
:403FC00000F0CEF8134802212830FEF7ABFBE00711D0062000F0C4F80F49FF20C91E48707078002802D1686B38436863094801212830FEF797FBE0050BD53078042802D130
:40400000052000F0ADF80348FF2101312830FEF789FBF8BD40F02E401F0D002000002E4010B503212348FEF78BFB0120FEF760FC20483038406A204C80076178800F8900AC
:4040400001431C480C38FEF77BFB6078002808D0401E022181401820FEF7E4FEC000083800E0B82081B21548FEF76AFB1348032109021438FEF764FB10481149B830FEF765
:404080005FFB612189010F48FEF75AFB0D480321001FFEF755FB0C490C48FEF751FB0B480B496038FEF74CFB084801218838FEF747FB10BD70F02E40220D0020D8102E400E
:4040C00090890000041E2E40FF0F000058122E40209000000849087806280BD148780749002803D1486B400840004863C86A01221043C862704700001F0D002040F02E4041
:4041000001480078704700001F0D002000B50300FFF7C8F8080D050D0B070507090D012000BD032000BD042000BD022000BDFF2000BD0000074A9168D26889B2064B92B244
:40414000994204D105498A4201D1012100E000210170704780002E4033D000003FE3000010B50446FEF7D8FB072C01D9FF2C01D102480470FEF7CAFB10BD00001F0D0020D3
:4041800001494870704700001C0D002010B5064A012805D01921C9021046FEF7D1FA10BD1D21C902F8E7000090002E4010B50A4A141D012808D009491046FEF7C1FA084928
:4041C0002046FEF7BDFA10BD04491046891CFEF7B7FA0349491DF3E788002E4031D000003AE3000070B50C460546FEF7B5FBC0B202280E49287804D0FF2810D04C280CD825
:4042000010E0FF2809D10A4AD0680004800F032801D0087807E09069000A553803E00878207070BD4F382070087070BD1E0D002000002E40F0B50122002830D000292ED0CF
:404240000424420600D00524792342065B06D21800D0641C034600221EE00C2516466E43104D00277519AF720E4F002ABB51696007D0661EB24209D10B4E86197606760EFF
:4042800005E05E06760E8027BE1B00E080269B198919521C2E81D2B2A242DED300221046F0BD00004013002079020000074900200C2242435218927A012A05D0401CC0B225
:4042C0000628F5D3002070470120704740130020F8B50F000446164609D0184D18496868A04202D94018A04201D38E4201D90120F8BD39462046FEF7C7FD00281BD0324661
:4043000039462046FEF7CFFDF0B200210C224A43521913895668F718A74208D90127A41B1B1B9772834206DAC01A1469C0B2491CC9B20629EAD30020F8BD00004013002013
:404340007902000010B500F05DF80748054AC16806480C46FEF7A7FD04492046FFF76AFF10BD000079020000280D0020C4100020002070470020054A002902D0012902D0D8
:4043800002E0506000E0906000207047280D002070B5084C154608460549A26889182A46FEF781FDA0684019A06028B270BD0000C4100020280D00203EB50A226946FFF7FC
:4043C000E7FF044606480A2200686946FEF75CFD002802D00020C0433EBD20463EBD0000280D0020002802D0044A914201D2FF20704703490A61C8600020704779020000EB
:40440000280D0020024800214160816070470000280D002070B5074C15460548626880182A46FFF755FF60684019606028B270BDC4100020280D002010B503490A22096813
:40444000FFF7E8FF10BD0000280D002010B50F4A002313600E4A13600E4B18600E4801600E49012008600E490860000290600E490C4808600D4914300860FF38153850605C
:4044800000F0BCF800F0CAF9002010BD540D00203C0D0020680D00206C0D0020580D0020480D0020881400204C0D0020600D0020014610B50020002910D0094B1A689C68D5
:4044C0005118A14209D25868196080188A0704D08A07920F891A091D196010BD002010BD3C0D0020F8B50024164E671E321F3D463168136806E01422624310328A58521CD3
:404500001BD0641C9C42F6D36A1C14D02C461422544322460C3288500C214843FFF7C8FF3168002808510AD031680020103408517068401C70602846F8BD2546E4E73846A8
:40454000F8BD00004C0D0020F3B50026F64381B000281BDB1E490968884217D80299002914D01B4F142204463F1D54432546396810354859401C09D0FEF7CEF938682F1FD0
:404580004159C359994203DBFEF7C0F93046FEBD214608310091465801590C20704308180C220299FEF77FFC0948761C001D0068C159B14200D100260549009A091D8650FC
:4045C00008684159491C4151FEF7A0F90020FEBD480D0020002803DB07490968884202D90020C043704704491422091D096850431030085870470000480D0020F0B5002058
:404600000D4A451E0346171F50600FE014260146714314680E1DA3510C461668083433511668083435511468401C635039688842ECD30020F0BD00004C0D0020F3B5002639
:40464000F64381B0002841DB2349096888423DD8029900293AD0204F142204463F1D54432546396810354859401C2FD0FEF754F93868415900292BD0211D009146580C2199
:40468000005971430F46C1190C220298FEF70BFC11480021001D0068761C00590C34C0190160416081600C48001D00680159B14200D100260849009A091D86500868415906
:4046C000491E4151FEF722F90020FEBD3046FEBDFEF71CF9FAE70000480D0020FEB504460D4600201E49089E0860471E009001900290002C11D0486885420ED2002A0CD0DE
:40470000002E0AD0642E08D808460C3001681C2068430C18207A002801D03846FEBD0120226020721846FFF7DDFE6060401C13D06681A6810A4827610C3067610179A94281
:4047400000D205710021684601810A462846029B00F040F82846FEBD00202072DDE70000540D002038B50124009400F039F838BDFEB50027164EFF433D4600240EE01C20F0
:40478000316860430818017A002906D04068FFF721FF002801D0254603E0641C3079A042EDDA681C12D01C2130684D434419FEF7B3F869466068FFF741FF0546FEF7A6F8F9
:4047C000002DD9D1216868468847D5E7FEBD0000600D002038B50024009400F001F838BD1FB500220C49541E0A60002811DB496888420ED808491C220C31096850430818C9
:40480000406801A9FFF7A0FE401C02D0002004B010BD2046FBE70000540D0020F0B50021114A4D1E174611710C3F0B46BD6016E008461C2460431668041D355114680646C2
:40484000235014680836A3551468361DA353044616680A34335318301468491C255078688142E5D30020F0BD600D002038B500210091002811DB0F49097888420DDA0D4DD8
:4048800004010C3529680859002807D0201D0818694600F06FF9002801D0002038BDFEF73BF828680F34015D491E0155FEF72EF8009838BD700D0020F7B582B00025029857
:4048C0006E1E06602E48D21C024017462D4A2C4610460C380178106805E02301C358002B0FD0641CE4B28C42F7D3711C28D03401211D40180191039900F02AF900281FD1CA
:4049000001E02646F1E71F48016820460C300F521C480399026820460E30115419480399026820460F3011540398784300F0A0F8144900280968085102D00024009011E0F7
:4049400001251AE00F48016801980818009900F02CF9002801D0012502E00098C0190090641CE4B203988442ECD3002D05D10298066004480179491C0171284605B0F0BD48
:40498000FCFF00007C0D0020F8B50D4600216A468C461180002839DB23490978884235DA214B04010C3319680A59002A2ED020460C300B5A801C0E5C1846704380189542D4
:4049C00024D3854222D2002006E007465F43BF18AF4206D0401CC0B2B042F6D36046002814D0114E271DC8190C366A46294600F006F900280AD168460088012808D0306891
:404A00002946C01900F0D1F8002803D00120F8BD0020F8BDFDF780FF30680F34015D491C0155FDF773FFF3E7700D0020F8B50F46002400F031F8002817D10C4900220B4674
:404A40000C334A600EE021011D680E466A501D680C36AA53B61C1D680F31AA551D68641C6A54E4B2BC42EED31A71F8BD700D002000280BD0C01C074A810850688900538886
:404A80004118994203D89368516018187047002070470000700D0020F8B5064600200F4D009029700C0121466846FEF799FC00280CD129460C3100980860301B001F84B245
:404AC00021466846FEF78CFC002801D0FF20F8BD6C800098A8600020F8BD0000700D0020F8B5002827DB19490978884223DA174C05010C342168485900281CD028460C3047
:404B0000085A009028460E300E5C401C0E5420682F1DC01900F064F800280CD12068002445590EE0094829460C300068C01900F03CF8002801D00120F8BD00982D18641CEC
:404B4000E4B2B442EED30020F8BD0000700D002030B50D4604000BD0A800FFF789FF6060002805D000202570C0436080002030BD012030BD70B50D46040005D0002D03D078
:404B80000220205E002801DA012070BDFDF7C4FE0221615E60688900405828606088401E6080FDF7B3FE002070BD70B50D46040007D0002D05D002212078615E401E8142F3
:404BC00001DB012070BDFDF7A7FE6088401C00B26080616880000D50FDF798FE002070BD10B5040009D0227800216068FEF764F90020C0436080002010BD012010BDF0B5A5
:404C000000231D46002802D00224045F0AE00120F0BD46689F00F6598E4201D1012503E05B1CDBB29C42F4DA15700020F0BD00000148007870470000840D00207CB50546C5
:404C40000024FEF76DF9A8796946087000A8062229460130FEF727F90021684604F026FB0C2804D0072804D01F2804D004E0022402E0042400E0272420467CBD10B500F04B
:404C800031F9FFF73DFAFFF741FA10BD70B504460025FEF745F9002C06D0A079012803D8214602F06DFB00E00125284670BD01460120002902D05020088000207047000025
:404CC00001460120002905D003485422007850430880002070470000860D002010B502460D49FE204870032410460CF019FC002810D10CF0BDFB00280CD105F06DF8002865
:404D000008D100F0DFFA002804D104F053FD002800D10024204610BD840D002070B50025044600280ED0A07901280BD8FEF7F8F8A0790028204602D002F0B0FE03E002F0FD
:404D400085FE00E00125284670BD0000014610B50120002904D006220248FEF7A4F8002010BD0000880D002001460120002903D0087802490870002070470000860D00200F
:404D800038B504460120002C20D0617801291DD800290BD0FF25E535FEF7C2F80C4828180088C0B22070072803D00EE0FF25CD35F2E70020694608706846FFF7BBF969463B
:404DC0000878012801D108202070002038BD000000102E40F8B504460120002C26D06178012902D92278092A20D8002905D0FF25E5352078092803D004E0FF25CD35F8E74F
:404E000008202070FEF78CF82078114F114E08280DD00020FFF7CAF970780128207810D00D4969180880FE2070700020F8BD0120FFF7BCF90720B881054920318880012055
:404E4000F2E7B8810248217820308180EBE70000C0112E40840D002000102E4070B50E46050001D0002400E00C4C002C11D0E28A500609D5D107C90F022002F0A3FEE08A85
:404E800040218843E08204E0D107C90F012002F099FE3146284602F081FB70BD20150020F8B50546002004460D4E009013E022466946284600F01EFF0098002801D00CF0F2
:404EC00011FBA878214602F0CBF9A878214602F0B9F9641CE4B2308AA042E8D8F8BD0000D815002038B51E4CFFF70AF9042813D0052811D0062812D003282AD007280AD15E
:404F000000206946087002460120FFF723F8FFF7F7F80128FBD138BD00F048FB38BD02F0EDF900F043FB02F04DFA8007800F0228F4D10C4841880029F0D05B21095D002964
:404F4000ECD101210170A07D0140022002F03AFE38BD02F0D7F90120FFF702F938BD000020150020940D0020F8B50646002402F097FE0546304602F0ADFE03460A480021A5
:404F8000068A0DE001228A401046174628401F40002803D0002F01D1224394B2491CC9B28E42EFD82046F8BDD81500201CB50020694648706846FFF7E3FE01AA69460A2066
:404FC000FEF7C8FF6946042008561CBD10B50C4601F062FA002809D00179002906D0C1788078224602F060FB002010BD022010BD0148007870470000F81400204030C07EF9
:40500000002800D00120704700B500F001F800BD8C2148430749084A40186030417F491CC9B24177D289914201D300214177C8B27047000000150020D815002013B501F024
:405040002BFA04000BD001F0C8FD002807D0214601AA0A310620FEF77DFF00201CBD02201CBD000010B50C4601F016FA00280AD001F0B3FD002806D0224604490A20FEF712
:4050800069FF002010BD022010BD0000E1140020F3B581B0074601460026029802F0F8FD0446002F01D0002500E0154D002D21D0284601F027FA032C04D13946029802F025
:4050C00043FE06463846029902F0BCF8032C06D0002C10D00121384601F01AFB03E03146384603F02DF8284601F0A0FF0221284601F0B6FFFEBD3846029902F0A3F8FEBD6C
:405100002015002010B5044603F064FC002801D00C2010BD2078611C02F0C8FBFF2801D01F2010BD02F00EFCFF280AD02178621C02F016F8044821780068026B601C9047D7
:4051400010BD072010BD0000AC0D002010B503F041FC002801D00C2010BD02F089FB03480068C06A8047002010BD0000AC0D002070B50D46044610210CF0F4F8102160184A
:4051800006460CF0EFF8334610221946204603F04FFC102130460CF0E5F802202870204604F060FA70BD0000F8B504464078217802028006870FE0781143A67809050002B5
:4051C000090D0643084601F067F900210546F2B2002812D0002C10D0022F0ED0032F0CD0002A0AD00279092A07D0002A05D0134A5A23527E1B5C9A4207D82889002104F044
:4052000066F920460CF06EF9FF21002914D10C48224600682946436930469847C0B2FF280AD128464030817EF2B2491C8176FF232146284600F0DDF8F8BD0000B8140020D6
:40524000C40D00200020704710B5044603F0C2FB002801D00C2010BD2078611C02F026FBFF2808D002F05EFA044821780068426B601C904710BD1F2010BD0000AC0D002045
:4052800010B504F097FA00F057F9002010BD10B5044600786178E2780843A17811430843217908436179084305D003F085FB002803D00C2010BD122010BD204602F0EEFB34
:4052C000002010BD10B5FDF747FB02F00BFD044803F0ECFB02F030FA012000F003F810BDC8140020F1B586B003A8009005A8019025489F22817A114081726846FDF72AFE29
:4053000000283FD169460989C90705D01F4806990068C2686846904769460989890706D500282FD11A480068816A06988847002828D1184E0025757075737571F5753576C8
:4053400075767575B570F570B5713746F5730120BC3738731F20F880FF2130467972A0300175457500F056FA00242046069901F0DFFB002803D1641C2406240EF5D0FD728C
:40538000BD72B57307B0F0BDB8140020C40D0020AC0D00200015002070B505460E46084602F07EFC0446304602F094FC0121A9400A46224001400A4301D0012070BD0020FD
:4053C00070BD10B50446084602F084FC0121A140014201D0012010BD002010BD10B5FEF78FFE032804D101F08DFF0120FEF7B8FE10BDFEB51C4616460F46054601F016FE4C
:40540000A878FFF701FE02460190334639460094284600F00DF8002808D1A8780199FFF71DFDFF2C02D138460CF05CF8FEBD0000FFB585B005460E980C46FF2810D02B4996
:40544000C00009680A5840180179C0795278814201D9012601E09006860F6846038108E06078A1788006860FE0780002014368460181284601F0BCFB070007D02146284637
:40548000079A00F0CBFB384609B0F0BD304600F079FC04AE0346039002AA29460096204600F005FB3C20405D002818D0284601F09FFB012813D0684600890096C0B2019063
:4054C000A878231DFF22079902F01CF868460089039BC2B2A878079902F05CFBD3E7684600890021C0B20091E9E70000C00D0020F8B5104F002500242846FFF735FD060070
:4055000012D00EE03046E040C007C00F07D02146284601F08FFE21462846FFF7B9FD641CE4B2388AA042EDD86D1C2D062D0EE2D0F8BD0000D815002010B502F0FDF800200E
:40554000FFF7D0FE0CF064F8002010BDF8B5002400F094F80123012800D10124104F00203E4620360425082203E0002801D0002100E031460979002907D001290BD00229E0
:405580000BD0114681402143CCB2401C0006000EEBD07C70F8BD1C43F7E72C43F5E700000015002010B5FFF7D1FF10BD10B5FCF7B8F90446FEF7A4FD012809D0FEF7A0FD58
:4055C000022805D0FDF798FA2046FCF7AEF9EEE72046FCF7AAF910BD10B50B4681791943817103D08078114602F0A2FA10BD10B582798A43827102D1807802F0ADFA10BDFC
:4056000030B50C4C0220A28A0B4B9978002901D0022906D11D785B78EB18282B01D9032002E0032900D101205105490DC0020143A18230BDC0112E408F0D002000B500F05F
:4056400023F8002807D0012805D0032801D0042801D0002000BD012000BD014600B50020C90701D000F00AF800BD014600B50020C90701D000F002F800BD000001480088BD
:40568000000A704720102E400448008B410501D5042070474007800F7047000000102E4038B50446000610D5FFF7EEFF01280CD1684601F02DFE6846007800F0B3FA0120F9
:4056C00001F01CFD0220FFF76DFF0348006801692046884738BD0000AC0D002010B5034A0178117002F046F9002010BD8F0D002070B50446FFF7C2FF002801D00C2070BD9E
:40570000A27B01211F48002A827801D00A4301E05208520082706279012A14D0C17849084900C170184D2868016820468847207901280CD06188208802F07CFF20802079AC
:4057400004280FD015E0C2780A43C270EAE72868C168E01D8847E01D02F08CF90B48808C208006E02868C168E01D8847E01D02F081F9074920798870204602F009F9002078
:4057800070BD000000150020AC0D0020B81400208F0D002008B50178FFF770FF814201D10C2008BD002914D0072069460870FFF745FF012807D10121684600F08BF80128E3
:4057C00001D0092008BDFFF71BFF02F015F9012011E0FFF733FF012806D1684601F098FD6846007800F052FA02F0FCF8FFF746FF0028FBD10220FFF7D5FE002008BD000025
:4058000010B5034A0178517002F072F9002010BD8F0D002038B568460BF0FAFD002801D01F2038BD01210098C90201804180002505714571857107214173857302F0A8F8E8
:40584000009C202200212046FDF736FB25702A460021601CFDF730FB204602F08BF8204602F046F900980BF03DFE042200210248FDF722FB002038BD8F0D00200346084891
:4058800000B5834209D8184600F006FE002804D00089984201D1012000BD002000BD0000FF0E0000074A9179491C8906890E917138220A4092014907090E114308430249D2
:4058C0000840704700150020FF0E0000C006C00E70470000F8B507460E4600240D4803E0002C01D0002500E005462979002905D0641C2406240EF3D00020F8BD002120468A
:4059000001F016F92E712046FFF7CCFF28813C700120F8BD2015002010B503F0BDF80222002100F003F801F0B3FE10BD10B5094B40074907000F090F185A595A401850432E
:40594000C0086421FDF77EF9002800D1012080B210BD00001C3E0100F7B53D20405C88B015460C46002802D02878042802D200200BB0F0BD6946087200262046FFF73EFB6B
:40598000012800D00126204603A938300191009023460327A17E34333246206A03F0A0F802A8089900900B46019120463A4603A9243003F01DF802466846007A287020466B
:4059C00001F0A2F81046D3E7FFB587B00C4605461078694608723D20005D1746002826D000262046FFF70AFB012800D00126204603A93830019100902346A17E34333246F4
:405A0000206A03F06DF802A80090291D019120462B1D03A924300A9A02F0EAFF02006846007A388002D1204601F06EF810460BB0F0BDF0B505463C20405C89B016460C4646
:405A400000280CD0307869460873002806D000272046FFF7D3FA012803D003E01F2009B0F0BD012703200890204604A93830019100902346E17E34333A46E06903F030F8EB
:405A80006846007B03A928180290009120462B46019504A92430089A02F0DEFF02466846007B3070204601F039F81046D7E7FFB505463C20405C89B016460C46002810D03C
:405AC000084601F095F801280BD0308869468883002809D000272046FFF790FA012805D005E000200DB0F0BD0220FBE70127204603A93830019100902346E17E34333A4672
:405B0000E06902F0EDFF291D2B1D07A8129A6D4607C5204603A924300C9A02F09DFF02466846808B3080204600F0F8FF1046D9E770B50D460446FFF761FA01280AD0E87AB0
:405B4000A97A00020143A07801F09EFC012808D0002070BD00222421204602F0BDFC242070BD28214C200155204600F0A3FB282070BD0000002801D0002000E003484030BA
:405B8000C07F012800D0002070470000201500200146002049070ED50021084B03E0002901D0002200E01A461279022A04D0491C0906090EF3D07047012070472015002077
:405BC0000146002049070ED50021084B03E0002901D0002200E01A461279022A04D0491C0906090EF3D07047012070472015002010B5044680346068002803D00BF086FC98
:405C00000020606010BD4030417070474030817070474030017070470171704792001018C166704770B53C2501F080F9040004D020460021433001F0DBFBFF2229462046EF
:405C400000F0D4FB002C02D0A07801F0F1F870BD10B5002801D0002000E00348002802D0008903F07BFC10BD2015002010B5002801D0002000E00448002804D00179072980
:405C800001D100F047F810BD2015002010B501F04DF9002802D0807801F0CAF810BD00207047000070B50546008A00281ED01049F122897A1140C90618D5294640314A8A3C
:405CC000098A521C4A4392B2D10800D10121540801E0621A94B2A042FBD9FEF7A9FF012804D1298AA878224601F094FC70BD0000B814002010B50023054C0B60248A9442B9
:405D000004D992001018C26E0A60C36610BD0000D815002038B5044600200090A079002814D14020015D052901D00E290ED168460BF07EFB002809D12046009902F0AAFB95
:405D400003481021C28A2046FFF746FC38BD0000B814002010B50B4604460146184602F027F8002802D020460BF0C6FB10BD13B5044601AA11460620FEF7ECF86846818813
:405D800061811CBD002800D10220704770470000F8B504462346401D543300909A1EA078911E01F0D1FA25464035A88A298A8000FCF748FF401E81B2688A884203D96982FD
:405DC000A07801F039FF20460021433001F010FB27480088E88102F05FFEE989891C8AB26179FFF7A3FD01F053FC02F055FE2A8A6179FFF79BFD074601F03EFC688A0028C7
:405E000006D01C49088A032212021043088202E0002001F005FF1748803801886E8A002E0CD0304648431449FCF7FCFF0004000C01D0401C80B21149488002E00F480021AF
:405E40004180288A704381B2A07801F05FFEFF2228374932B9B21346204602F0EFFBE98AA07801F0D3FDA07801F00CFAF8BD000080102E40E0112E4071020000940D0020C1
:405E80007FB504468034616805460E46183108226846FDF708F831462031082202A8FDF702F8102168460BF05DFA6068102108300BF058FA60682B46083024331022694651
:405EC00002F0B6FD7FBD10B504460821FFF78FFB10212046FFF78BFB207905281FD006281DD008281AD12189002003F0AFFA072020712046FFF782F80146204640300129D0
:405F000013D00E21017000210176204600F0A2FF2046FFF76DFE2046FFF7C4FE10BD20890122002103F076FAE1E70521EAE70000FFB581B01F4604460821FFF758FB102157
:405F40002046FFF754FB2079082803D0092804D0042203E00422012501E009220025204600F032FE264600204036307022712046FFF73EFE0398002D02D0012808D00BE076
:405F800001280AD120890022029903F043FA04E02189029803F05AFA012700203076012F04D0204600F056FF05B0F0BD02983073204602F0BDFA054605480121C28A204621
:405FC000FFF70AFB002DEFD109202071ECE70000B814002070B50C460546FFF70FF8012809D108212846FFF702FB0023012221462846FFF79DFF70BD10B5044600F0E4FD3A
:406000002046FFF7F5FD00214034217010BD70B505461A24FEF7F2FF012809D108212846FFF7E5FA0023012221462846FFF780FF70BD0000F8B50446002000900E466846B6
:406040000BF0F6F9002801D00D20F8BD8420005908212030009D00F01AFA20460421383000F015FA002E02D1204600F0E9FD2946204602F09EF90E480821C28A2046FFF790
:40608000ABFA204600F057FF25464035002808D0204600F023F8002801D0092028700020F8BD08202870204600F0C0FFF7E70000B8140020014610B540310A460978082991
:4060C00006D0092907D00A2901D100F091F810BD0B20107010BD00F001F810BD70B50446007925464035052805D0062803D008280FD00C2070BD03220621204602F0ECF98C
:406100000D480821C28A2046FFF766FA1120287010E006202873204602F00AFA0646AA8A0A20424301212046FFF756FA002E01D109202071002070BDB814002038B50446DC
:406140000020009068460BF073F9002801D00D2038BD2046009D00F0B1F908202071204600F06EFD2946204602F056F900213D2001550F2040210855204600F057FF002085
:4061800038BD00B5024600F01FFD10214032117000BD10B50446FEF731FF012809D04020005D112805D100231A4606212046FFF7BFFE10BD10B5FFF786FE10BD38B504462B
:4061C0000021684600910BF033F900280CD12046009902F0A2F905480821C28A2046FFF7FBF90D204034207038BD0000B814002038B504460021684600910BF019F9002897
:4062000001D00D2038BD2046009902F07BF905480821C28A2046FFF7DFF90C2040342070002038BDB814002000787047F8B50025002801D0002400E01A4C002C28D02046F1
:4062400000F0CBFC002823D0207903281CD005281CD026464036B18AA07801F061FCB078012815D10021204601F0BFFD274680373868002802D00BF049F93D600020B070BD
:406280002079072805D007E0042000E006202071F8BD2046FFF706FD0221204600F0E0FEF8BD00002015002010B54C22115400F04CF810BD10B50446FF21FFF798F90920B2
:4062C0002071A07801F052FC10BD000038B5FF216A461180002801D0002400E0084C002C0DD011460620FDF735FE684601882046FFF73DFD03480068C1692046884738BDC9
:4063000020150020C40D002010B504468079002809D022214C200155FF212046FFF767F9204600F012F810BD10B5037902464032002B03D01173092B02D003E0002100E099
:406340002221117300F001F810BDFEB504460089002700902781207926464036002817D0012815D002280AD112E002AA01A9204601F00CFD002807D101980BF0BDF82046C7
:4063800001F02CFD0028F0D02046FEF789FDB776254680352868002802D00BF0B7F82F606868002802D00BF0B1F86F60317B002919D0009800F064F8A078002100F076FF6D
:4063C0002046FFF7A9FAA07801F048F8A07800F02FFDFF212046FFF70AF90B20FFF7E2F800F068FCFEBD1F213173E2E7F8B517460E46054602F04CFB04003CD020460C3057
:4064000000F0E6FF2046062200211830FCF754FD2046062200211230FCF74EFD1648224600683946436A28469847074626702846FEF7E4FD012148406070002D10D0288917
:40644000608028464030C1782171002E0FD169796171018AE180418A2181808A608106E00648008BC005C00F2071002060803946204602F06EFFF8BDAC0D002000102E4059
:406480000A4610B50146002003F080F810BD10B50AF044FD10BD000000B50146FFF716FA002801D0002000E00348002802D002898A4200D0002000BD2015002038B504468B
:4064C00080346068002806D168460AF0C1FF002801D100986060606838BD000010B5014600F086FB0128887802D0FEF791FD10BD8C214843024940186030007F10BD00002B
:406500000015002070B5054604464035A87F012811D1A1788C20084A484380186030067F3046FEF739FF002805D10220A877A078314601F03DF870BD0015002010B50C4C60
:40654000A07A002813D0FEF7D3FF0A48027F417F408B00F0B7FB012809D10020A07200F0EDFE05498989090B01D000F03BFA10BDBC15002000150020A0102E407047704736
:40658000490510B5490F0B00FCF78CFE060704080C0C0F073E21FFF787FE10BD0821FFF7C3FE10BDFFF7D1FE10BDFFF7ADFE10BDF8B507460025002D01D0002600E0204EBC
:4065C00000F08AFE3046403044890021418100F08DFE304600F001FB01282BD1A00702D52846FFF723FEE00602D52846FFF76EFEA00601D5FEF77CFF600601D500F014FBD4
:40660000200602D5284600F01DF8600702D5284600F02CFA380402D52846FFF727FB780402D52846FFF714FBE00703D021463046FFF7A6FF6D1C2D062D0EBCD0F8BD00005F
:4066400020150020F8B5002801D0002400E0284C002C4BD025464035A878012846D1FF278820493700593E46002805D02149897A890601D5878AC68A2046FEF7BFFC012886
:4066800034D002F009FA2A8A6179FFF74FF9009000F0F2FF00983346283081B23A46204601F0CCFFE98AA07801F0B0F912480188688A124E002810D048431149FCF7B2FB7F
:4066C0000004000C01D0401C80B27080A07DC107C90F002001F076FA01E000207080288A698A484381B2A07801F010FAF8BD000020150020B814002060112E40940D002000
:40670000710200000149096809680847C40D002070B50D460026194A0146002801D0002401E014462034002C26D0204600F060FA01280AD18C20484380186030007FFEF7DD
:406740002BFE002801D101F073FE0D48006881692046884700280CD020464030817EA94202D3491B817600E086762089294602F0AEFE204600F05AFC70BD00000015002024
:40678000C40D002070B503460088FFF785FE040013D000F022FA00280FD02079092819D02546997840352973204601F0C1FE0646A878012803D0AA8A02E0022070BDEA88EA
:4067C0000A20424301212046FEF706FF002E01D109202071002070BD0EB5002217216B460292198100905A810120029B00990AF02DFF0EBDF8B518480024807A002822D16C
:40680000164E0025B089000B22E0204600F000FE1249A039401807882A462146384600F051FA012810D00E480122478305770A4944778A72002D01D0002000E02030002842
:4068400001D000F0F3FBF8BDB089000B641CE4B20028DAD1F8BD0000BC150020A0102E400015002010B50088FFF716FE002809D0014640310C460978082905D00B2903D09E
:406880000C2010BD022010BDFFF728FC002801D009202070002010BD70B503460088FFF7FBFD040008D0254640352878082805D00B2803D00C2070BD022070BD8420005947
:4068C00010220830991CFCF7EEFA2046FFF7D8FA2878082804D02046FFF78AFC002801D00A202870204600F0A1FB002070BD000010B50C46002121700088FFF7CDFD0300DC
:406900000BD000F06AF9002807D00948F121807A0840C00603D4112010BD022010BD022020701A8A1889002102F04CFE002010BDB8140020F8B50F46002100910088FFF79C
:40694000ABFD040012D000F048F900280ED0E079410641D4617E02264A07002A08DB8907402500291ADA2843E07135E00220F8BD02F08EF80021017021894180A1898180DE
:40698000217E4170E189C1803E7005460178134802F0F2FA284602F0B9FD1DE0204600F02DF9012806D068460AF042FD002803D00720F8BD2A20F8BDE07900992843E07138
:4069C000204601F0DFFD607E0421304360760448C28A2046FEF700FE0020F8BD1D040000B81400203EB500220F236C460292238100910190628169460EC900200AF026FE4B
:406A00003EBD0000F8B50F46054600F08FFA040025D003202071254600264035EE76E6702046FFF7B5F900F0DDFF0920FEF7BAFDA07800F001FD0121204600F011FB2E7055
:406A40006E70AE703A4600212046FFF7CFFC0649887B401C8873A078FFF754FEF8BD284601F084F8F8BD00000015002010B5002801D0002000E0094800280DD00146403103
:406A80000A464978022901D100215170807DC107C90F002001F096F810BD00002015002070B503460D460088FFF7F6FC04000BD000F093F8002807D01248F121807A084050
:406AC000C00603D4112070BD022070BD20464030418A008A491C41430804C10C5888884201D2122070BD20822079072802D12046FFF7D8F8022028702089002102F08AFD1D
:406B0000002070BDB8140020016A491C016204D1817E491C4906490E81767047C169491CC16104D1C17E491C4906490EC1767047F0B5074687B003A8009005A800260D4614
:406B40000190002F01D0002400E01B4C002C05D06846FCF7FFF9002803D00BE0022007B0F0BD68460089C00704D18C2200212046FCF7A2F911482946006882682046904726
:406B8000050016D1A77066762746267140373E70204600F019F8204601F01CF9084820820848BE77807AF121084000D001202075E682E8B2D3E7000020150020C40D0020A7
:406BC000B80B0000B8140020002101628176C161C17620300177417770470079002805D0012803D0022801D001207047002070474030807F002800D0012070474030007898
:406C0000002807D0012805D0052803D00E2801D0012070470020704710B5807801F05AF8002800D0012010BD10B500F087FB03498989090B01D0FFF7D5FE10BDA0102E408D
:406C400070B5054604464035A87F002825D1FF206075A0788C21154A484380186030417F8C23491CC9B24177A0785843104B8018DB896030994201D300214177A0788C21E7
:406C8000484380186030467F0677A1783046FEF783FB002802D00120A87770BD0220A877A078314600F084FC70BD000000150020D81500200020401C0006000EFBD000204C
:406CC00070470000F0B515468207920F85B0000A02926A469080002D01D0002400E0524C002C28D0084600F093FB07466846808800280BD00298012843D0022841D003284E
:406D00000BD03D20005D012870D087E04748381801882046FFF72BF880E00020029002A80AF066FB002807D03D20005D012878D12046FFF7E9FE74E06846029E838832465D
:406D400000213846FDF718F83848381801882046FFF70DF8284600F0A1FA01AA21463046FEF7FAFD002806D030460AF0B1FB3D204C21085528E0F5773146204601F090F93D
:406D80004FE0002000902089039068460AF020FB002802D0002005B0F0BD6846009E8388321D00213846FCF7E7FF2048381801882046FEF7DCFF284600F070FA254640353C
:406DC000287E00280CD103E02046FFF773FA28E001AA21463046029BFEF7F6FD002806D030460AF06BFB3D202873EDE713E00298FEF7CCFF01460398307003980901000A09
:406E00000843707068468088B070000AF0703046FFF7E2FC05E02046FFF776FE284600F03DFA0120B7E700002015002000102E4010B5074A917B002901D0491E9173002119
:406E4000FFF776FE002801D0002010BD012010BD00150020F8B5074606464037B87F00282DD0B0788C2100904843234945186035287F0099FEF7A5FA01281ED0287F401C4A
:406E8000C4B21E48C089A04200D800240020B877FF276F772F77A87702460146009800F0F3FC717DFF2903D0304600F054FF777501F0BEFA0025114F19E00320B877F8BDED
:406EC00000200090224669463046FEF713FF0099002904D0FF231A463046FEF78AFA641CF889E4B2A04200D800246D1CEDB2F889A842E5D8F8BD000000150020D81500208B
:406F000010B502460021084B03E0002901D0002000E018460479944204D0491C0906090EF3D0002010BD00002015002000B50120FFF7E6FF00BD10B5044601F0A9FD218920
:406F4000018080346168416061682831816002F097FA10BDF7B50646087982B00C46092807D0A078F0770846FFF742FE012806D010E030460AF0C0FA022005B0F0BDA17861
:406F80008C20294A484380186030007FFEF704FA012810D0A078FEF7EDFD01280BD037780121304601F0F0F925462035062F38D00B2F0FD107E06846027C21463046FEF76C
:406FC000C9FE0D20D9E72046FEF718F8012801D1002028772046FFF781FA054604AA21463046FEF726FD01205F2108556946097C002001910090A07833463A46294600F00F
:4070000081FA69460A7CA0780323294600F0C2FDA0782946FDF722FF30460AF06DFA0020ABE70120D5E700000015002010B502464032937F0021002B03D1927E002A00D052
:407040000121064A927A002A00D000210279092A00D10121807800F0D5FD10BDBC15002070B50C460546FDF7C9FF00280BD1012C06D92879092806D02846FFF7CDFD0446B0
:40708000002C02D004E0012402E0A87DC007FAD1A87DC107C90F204600F094FD70BD0000012807D0082804D104480282034808300180704701488038FAE70000A0102E40C7
:4070C000014908817047000000102E4010B50446FF20F130012C01D1FF20D530002200F0C3FD044A108A044980B2A0430880108210BD000000102E40980D0020034B198ADF
:40710000034A89B2814311801982704700102E40980D002010B50446012802D0082C07D102E0FF20D53001E0FF20F13000F094FD0348018A034A89B221431180018210BD7C
:4071400000102E40980D0020034B198A034A89B2014311801982704700102E40980D0020F8B505460120A84086B214460F46012231467C2000F078FD3A463146782000F0E7
:4071800073FD6078267800020643E078A2780002024360792379000203430C2045430D2080010549281844182680001D44182280001D40180380F8BD00102E40CB065B0EB6
:4071C0000343480901021943D00108430121C902084301490881704780142E404278037812021343084A1382C37880781B021843908248780B78000203431383C878897814
:40720000000201439183704700142E40024A1080000C90801181704700142E40044A002180180288491C89B21029FAD37047000000102E40024A10820148803081817047FC
